{
  "contractName": "MatiesCoin",
  "abi": [
    {
      "inputs": [
        {
          "internalType": "string",
          "name": "name",
          "type": "string"
        },
        {
          "internalType": "string",
          "name": "symbol",
          "type": "string"
        },
        {
          "internalType": "uint256",
          "name": "cap_",
          "type": "uint256"
        }
      ],
      "stateMutability": "nonpayable",
      "type": "constructor"
    },
    {
      "anonymous": false,
      "inputs": [
        {
          "indexed": true,
          "internalType": "address",
          "name": "owner",
          "type": "address"
        },
        {
          "indexed": true,
          "internalType": "address",
          "name": "spender",
          "type": "address"
        },
        {
          "indexed": false,
          "internalType": "uint256",
          "name": "value",
          "type": "uint256"
        }
      ],
      "name": "Approval",
      "type": "event"
    },
    {
      "anonymous": false,
      "inputs": [
        {
          "indexed": false,
          "internalType": "uint256",
          "name": "cap",
          "type": "uint256"
        }
      ],
      "name": "CapIncreased",
      "type": "event"
    },
    {
      "anonymous": false,
      "inputs": [
        {
          "indexed": false,
          "internalType": "address",
          "name": "account",
          "type": "address"
        }
      ],
      "name": "Paused",
      "type": "event"
    },
    {
      "anonymous": false,
      "inputs": [
        {
          "indexed": true,
          "internalType": "bytes32",
          "name": "role",
          "type": "bytes32"
        },
        {
          "indexed": true,
          "internalType": "bytes32",
          "name": "previousAdminRole",
          "type": "bytes32"
        },
        {
          "indexed": true,
          "internalType": "bytes32",
          "name": "newAdminRole",
          "type": "bytes32"
        }
      ],
      "name": "RoleAdminChanged",
      "type": "event"
    },
    {
      "anonymous": false,
      "inputs": [
        {
          "indexed": true,
          "internalType": "bytes32",
          "name": "role",
          "type": "bytes32"
        },
        {
          "indexed": true,
          "internalType": "address",
          "name": "account",
          "type": "address"
        },
        {
          "indexed": true,
          "internalType": "address",
          "name": "sender",
          "type": "address"
        }
      ],
      "name": "RoleGranted",
      "type": "event"
    },
    {
      "anonymous": false,
      "inputs": [
        {
          "indexed": true,
          "internalType": "bytes32",
          "name": "role",
          "type": "bytes32"
        },
        {
          "indexed": true,
          "internalType": "address",
          "name": "account",
          "type": "address"
        },
        {
          "indexed": true,
          "internalType": "address",
          "name": "sender",
          "type": "address"
        }
      ],
      "name": "RoleRevoked",
      "type": "event"
    },
    {
      "anonymous": false,
      "inputs": [
        {
          "indexed": true,
          "internalType": "address",
          "name": "from",
          "type": "address"
        },
        {
          "indexed": true,
          "internalType": "address",
          "name": "to",
          "type": "address"
        },
        {
          "indexed": false,
          "internalType": "uint256",
          "name": "value",
          "type": "uint256"
        }
      ],
      "name": "Transfer",
      "type": "event"
    },
    {
      "anonymous": false,
      "inputs": [
        {
          "indexed": false,
          "internalType": "address",
          "name": "account",
          "type": "address"
        }
      ],
      "name": "Unpaused",
      "type": "event"
    },
    {
      "inputs": [],
      "name": "CAP_ROLE",
      "outputs": [
        {
          "internalType": "bytes32",
          "name": "",
          "type": "bytes32"
        }
      ],
      "stateMutability": "view",
      "type": "function",
      "constant": true
    },
    {
      "inputs": [],
      "name": "DEFAULT_ADMIN_ROLE",
      "outputs": [
        {
          "internalType": "bytes32",
          "name": "",
          "type": "bytes32"
        }
      ],
      "stateMutability": "view",
      "type": "function",
      "constant": true
    },
    {
      "inputs": [],
      "name": "MINTER_ROLE",
      "outputs": [
        {
          "internalType": "bytes32",
          "name": "",
          "type": "bytes32"
        }
      ],
      "stateMutability": "view",
      "type": "function",
      "constant": true
    },
    {
      "inputs": [],
      "name": "PAUSER_ROLE",
      "outputs": [
        {
          "internalType": "bytes32",
          "name": "",
          "type": "bytes32"
        }
      ],
      "stateMutability": "view",
      "type": "function",
      "constant": true
    },
    {
      "inputs": [
        {
          "internalType": "address",
          "name": "owner",
          "type": "address"
        },
        {
          "internalType": "address",
          "name": "spender",
          "type": "address"
        }
      ],
      "name": "allowance",
      "outputs": [
        {
          "internalType": "uint256",
          "name": "",
          "type": "uint256"
        }
      ],
      "stateMutability": "view",
      "type": "function",
      "constant": true
    },
    {
      "inputs": [
        {
          "internalType": "address",
          "name": "spender",
          "type": "address"
        },
        {
          "internalType": "uint256",
          "name": "amount",
          "type": "uint256"
        }
      ],
      "name": "approve",
      "outputs": [
        {
          "internalType": "bool",
          "name": "",
          "type": "bool"
        }
      ],
      "stateMutability": "nonpayable",
      "type": "function"
    },
    {
      "inputs": [
        {
          "internalType": "address",
          "name": "account",
          "type": "address"
        }
      ],
      "name": "balanceOf",
      "outputs": [
        {
          "internalType": "uint256",
          "name": "",
          "type": "uint256"
        }
      ],
      "stateMutability": "view",
      "type": "function",
      "constant": true
    },
    {
      "inputs": [
        {
          "internalType": "uint256",
          "name": "amount",
          "type": "uint256"
        }
      ],
      "name": "burn",
      "outputs": [],
      "stateMutability": "nonpayable",
      "type": "function"
    },
    {
      "inputs": [
        {
          "internalType": "address",
          "name": "account",
          "type": "address"
        },
        {
          "internalType": "uint256",
          "name": "amount",
          "type": "uint256"
        }
      ],
      "name": "burnFrom",
      "outputs": [],
      "stateMutability": "nonpayable",
      "type": "function"
    },
    {
      "inputs": [],
      "name": "decimals",
      "outputs": [
        {
          "internalType": "uint8",
          "name": "",
          "type": "uint8"
        }
      ],
      "stateMutability": "view",
      "type": "function",
      "constant": true
    },
    {
      "inputs": [
        {
          "internalType": "address",
          "name": "spender",
          "type": "address"
        },
        {
          "internalType": "uint256",
          "name": "subtractedValue",
          "type": "uint256"
        }
      ],
      "name": "decreaseAllowance",
      "outputs": [
        {
          "internalType": "bool",
          "name": "",
          "type": "bool"
        }
      ],
      "stateMutability": "nonpayable",
      "type": "function"
    },
    {
      "inputs": [
        {
          "internalType": "bytes32",
          "name": "role",
          "type": "bytes32"
        }
      ],
      "name": "getRoleAdmin",
      "outputs": [
        {
          "internalType": "bytes32",
          "name": "",
          "type": "bytes32"
        }
      ],
      "stateMutability": "view",
      "type": "function",
      "constant": true
    },
    {
      "inputs": [
        {
          "internalType": "bytes32",
          "name": "role",
          "type": "bytes32"
        },
        {
          "internalType": "uint256",
          "name": "index",
          "type": "uint256"
        }
      ],
      "name": "getRoleMember",
      "outputs": [
        {
          "internalType": "address",
          "name": "",
          "type": "address"
        }
      ],
      "stateMutability": "view",
      "type": "function",
      "constant": true
    },
    {
      "inputs": [
        {
          "internalType": "bytes32",
          "name": "role",
          "type": "bytes32"
        }
      ],
      "name": "getRoleMemberCount",
      "outputs": [
        {
          "internalType": "uint256",
          "name": "",
          "type": "uint256"
        }
      ],
      "stateMutability": "view",
      "type": "function",
      "constant": true
    },
    {
      "inputs": [
        {
          "internalType": "bytes32",
          "name": "role",
          "type": "bytes32"
        },
        {
          "internalType": "address",
          "name": "account",
          "type": "address"
        }
      ],
      "name": "grantRole",
      "outputs": [],
      "stateMutability": "nonpayable",
      "type": "function"
    },
    {
      "inputs": [
        {
          "internalType": "bytes32",
          "name": "role",
          "type": "bytes32"
        },
        {
          "internalType": "address",
          "name": "account",
          "type": "address"
        }
      ],
      "name": "hasRole",
      "outputs": [
        {
          "internalType": "bool",
          "name": "",
          "type": "bool"
        }
      ],
      "stateMutability": "view",
      "type": "function",
      "constant": true
    },
    {
      "inputs": [
        {
          "internalType": "address",
          "name": "spender",
          "type": "address"
        },
        {
          "internalType": "uint256",
          "name": "addedValue",
          "type": "uint256"
        }
      ],
      "name": "increaseAllowance",
      "outputs": [
        {
          "internalType": "bool",
          "name": "",
          "type": "bool"
        }
      ],
      "stateMutability": "nonpayable",
      "type": "function"
    },
    {
      "inputs": [],
      "name": "name",
      "outputs": [
        {
          "internalType": "string",
          "name": "",
          "type": "string"
        }
      ],
      "stateMutability": "view",
      "type": "function",
      "constant": true
    },
    {
      "inputs": [],
      "name": "paused",
      "outputs": [
        {
          "internalType": "bool",
          "name": "",
          "type": "bool"
        }
      ],
      "stateMutability": "view",
      "type": "function",
      "constant": true
    },
    {
      "inputs": [
        {
          "internalType": "bytes32",
          "name": "role",
          "type": "bytes32"
        },
        {
          "internalType": "address",
          "name": "account",
          "type": "address"
        }
      ],
      "name": "renounceRole",
      "outputs": [],
      "stateMutability": "nonpayable",
      "type": "function"
    },
    {
      "inputs": [
        {
          "internalType": "bytes32",
          "name": "role",
          "type": "bytes32"
        },
        {
          "internalType": "address",
          "name": "account",
          "type": "address"
        }
      ],
      "name": "revokeRole",
      "outputs": [],
      "stateMutability": "nonpayable",
      "type": "function"
    },
    {
      "inputs": [
        {
          "internalType": "bytes4",
          "name": "interfaceId",
          "type": "bytes4"
        }
      ],
      "name": "supportsInterface",
      "outputs": [
        {
          "internalType": "bool",
          "name": "",
          "type": "bool"
        }
      ],
      "stateMutability": "view",
      "type": "function",
      "constant": true
    },
    {
      "inputs": [],
      "name": "symbol",
      "outputs": [
        {
          "internalType": "string",
          "name": "",
          "type": "string"
        }
      ],
      "stateMutability": "view",
      "type": "function",
      "constant": true
    },
    {
      "inputs": [],
      "name": "totalSupply",
      "outputs": [
        {
          "internalType": "uint256",
          "name": "",
          "type": "uint256"
        }
      ],
      "stateMutability": "view",
      "type": "function",
      "constant": true
    },
    {
      "inputs": [
        {
          "internalType": "address",
          "name": "recipient",
          "type": "address"
        },
        {
          "internalType": "uint256",
          "name": "amount",
          "type": "uint256"
        }
      ],
      "name": "transfer",
      "outputs": [
        {
          "internalType": "bool",
          "name": "",
          "type": "bool"
        }
      ],
      "stateMutability": "nonpayable",
      "type": "function"
    },
    {
      "inputs": [
        {
          "internalType": "address",
          "name": "sender",
          "type": "address"
        },
        {
          "internalType": "address",
          "name": "recipient",
          "type": "address"
        },
        {
          "internalType": "uint256",
          "name": "amount",
          "type": "uint256"
        }
      ],
      "name": "transferFrom",
      "outputs": [
        {
          "internalType": "bool",
          "name": "",
          "type": "bool"
        }
      ],
      "stateMutability": "nonpayable",
      "type": "function"
    },
    {
      "inputs": [
        {
          "internalType": "address",
          "name": "to",
          "type": "address"
        },
        {
          "internalType": "uint256",
          "name": "amount",
          "type": "uint256"
        }
      ],
      "name": "mint",
      "outputs": [],
      "stateMutability": "nonpayable",
      "type": "function"
    },
    {
      "inputs": [],
      "name": "cap",
      "outputs": [
        {
          "internalType": "uint256",
          "name": "",
          "type": "uint256"
        }
      ],
      "stateMutability": "view",
      "type": "function",
      "constant": true
    },
    {
      "inputs": [
        {
          "internalType": "uint256",
          "name": "amount",
          "type": "uint256"
        }
      ],
      "name": "increaseCap",
      "outputs": [
        {
          "internalType": "uint256",
          "name": "",
          "type": "uint256"
        }
      ],
      "stateMutability": "nonpayable",
      "type": "function"
    },
    {
      "inputs": [],
      "name": "pause",
      "outputs": [],
      "stateMutability": "nonpayable",
      "type": "function"
    },
    {
      "inputs": [],
      "name": "unpause",
      "outputs": [],
      "stateMutability": "nonpayable",
      "type": "function"
    }
  ],
  "bytecode": "0x60806040523480156200001157600080fd5b5060405162003ecd38038062003ecd83398181016040528101906200003791906200061c565b8282816005908051906020019062000051929190620004e3565b5080600690805190602001906200006a929190620004e3565b5050506000600760006101000a81548160ff02191690831515021790555060008111620000ce576040517f08c379a0000000000000000000000000000000000000000000000000000000008152600401620000c590620006e6565b60405180910390fd5b620001056000600102620000f06200020e640100000000026401000000009004565b62000216640100000000026401000000009004565b620001587f9f2df0fed2c77648de5860a4cc508cd0818c85b8b8a1ab4ceeef8d981c8956a6620001436200020e640100000000026401000000009004565b62000216640100000000026401000000009004565b620001ab7f65d7a28e3265b37a6474929f336521b332c1681b933f6cb9f3376673440d862a620001966200020e640100000000026401000000009004565b62000216640100000000026401000000009004565b620001fe7f65d7a28e3265b37a6474929f336521b332c1681b933f6cb9f3376673440d862a620001e96200020e640100000000026401000000009004565b62000216640100000000026401000000009004565b806008819055505050506200086e565b600033905090565b6200023682826200027064010000000002620010ea176401000000009004565b6200026b81600160008581526020019081526020016000206200028f64010000000002620010f8179091906401000000009004565b505050565b6200028b8282620002d0640100000000026401000000009004565b5050565b6000620002c8836000018373ffffffffffffffffffffffffffffffffffffffff16600102620003d3640100000000026401000000009004565b905092915050565b620002eb828262000456640100000000026401000000009004565b620003cf57600160008084815260200190815260200160002060000160008373ffffffffffffffffffffffffffffffffffffffff1673ffffffffffffffffffffffffffffffffffffffff16815260200190815260200160002060006101000a81548160ff021916908315150217905550620003746200020e640100000000026401000000009004565b73ffffffffffffffffffffffffffffffffffffffff168173ffffffffffffffffffffffffffffffffffffffff16837f2f8788117e7eff1d82e926ec794901d17c78024a50270940304540a733656f0d60405160405180910390a45b5050565b6000620003f08383620004c0640100000000026401000000009004565b6200044b57826000018290806001815401808255809150506001900390600052602060002001600090919091909150558260000180549050836001016000848152602001908152602001600020819055506001905062000450565b600090505b92915050565b600080600084815260200190815260200160002060000160008373ffffffffffffffffffffffffffffffffffffffff1673ffffffffffffffffffffffffffffffffffffffff16815260200190815260200160002060009054906101000a900460ff16905092915050565b600080836001016000848152602001908152602001600020541415905092915050565b828054620004f190620007c0565b90600052602060002090601f01602090048101928262000515576000855562000561565b82601f106200053057805160ff191683800117855562000561565b8280016001018555821562000561579182015b828111156200056057825182559160200191906001019062000543565b5b50905062000570919062000574565b5090565b5b808211156200058f57600081600090555060010162000575565b5090565b6000620005aa620005a4846200073c565b62000708565b905082815260208101848484011115620005c357600080fd5b620005d08482856200078a565b509392505050565b600082601f830112620005ea57600080fd5b8151620005fc84826020860162000593565b91505092915050565b600081519050620006168162000854565b92915050565b6000806000606084860312156200063257600080fd5b600084015167ffffffffffffffff8111156200064d57600080fd5b6200065b86828701620005d8565b935050602084015167ffffffffffffffff8111156200067957600080fd5b6200068786828701620005d8565b92505060406200069a8682870162000605565b9150509250925092565b6000620006b36015836200076f565b91507f45524332304361707065643a20636170206973203000000000000000000000006000830152602082019050919050565b600060208201905081810360008301526200070181620006a4565b9050919050565b6000604051905081810181811067ffffffffffffffff8211171562000732576200073162000825565b5b8060405250919050565b600067ffffffffffffffff8211156200075a576200075962000825565b5b601f19601f8301169050602081019050919050565b600082825260208201905092915050565b6000819050919050565b60005b83811015620007aa5780820151818401526020810190506200078d565b83811115620007ba576000848401525b50505050565b60006002820490506001821680620007d957607f821691505b60208210811415620007f057620007ef620007f6565b5b50919050565b7f4e487b7100000000000000000000000000000000000000000000000000000000600052602260045260246000fd5b7f4e487b7100000000000000000000000000000000000000000000000000000000600052604160045260246000fd5b6200085f8162000780565b81146200086b57600080fd5b50565b61364f806200087e6000396000f3fe608060405234801561001057600080fd5b5060043610610202576000357c0100000000000000000000000000000000000000000000000000000000900480635c975abb1161012c578063a217fddf116100bf578063d53913931161008e578063d5391393146105d7578063d547741f146105f5578063dd62ed3e14610611578063e63ab1e91461064157610202565b8063a217fddf14610529578063a457c2d714610547578063a9059cbb14610577578063ca15c873146105a757610202565b80638456cb59116100fb5780638456cb59146104a15780639010d07c146104ab57806391d14854146104db57806395d89b411461050b57610202565b80635c975abb1461041957806370a082311461043757806379cc67901461046757806382c95f9c1461048357610202565b8063313ce567116101a45780633f4ba83a116101735780633f4ba83a146103a757806340c10f19146103b157806342966c68146103cd578063523e9551146103e957610202565b8063313ce5671461031f578063355274ea1461033d57806336568abe1461035b578063395093511461037757610202565b806318160ddd116101e057806318160ddd1461028557806323b872dd146102a3578063248a9ca3146102d35780632f2ff15d1461030357610202565b806301ffc9a71461020757806306fdde0314610237578063095ea7b314610255575b600080fd5b610221600480360381019061021c919061267f565b61065f565b60405161022e9190612ffb565b60405180910390f35b61023f6106d9565b60405161024c9190613031565b60405180910390f35b61026f600480360381019061026a91906125a2565b61076b565b60405161027c9190612ffb565b60405180910390f35b61028d610789565b60405161029a91906132f3565b60405180910390f35b6102bd60048036038101906102b89190612553565b610793565b6040516102ca9190612ffb565b60405180910390f35b6102ed60048036038101906102e891906125de565b61088b565b6040516102fa9190613016565b60405180910390f35b61031d60048036038101906103189190612607565b6108aa565b005b6103276108de565b604051610334919061330e565b60405180910390f35b6103456108e7565b60405161035291906132f3565b60405180910390f35b61037560048036038101906103709190612607565b6108f1565b005b610391600480360381019061038c91906125a2565b610925565b60405161039e9190612ffb565b60405180910390f35b6103af6109d1565b005b6103cb60048036038101906103c691906125a2565b610a4b565b005b6103e760048036038101906103e291906126a8565b610b25565b005b61040360048036038101906103fe91906126a8565b610b39565b60405161041091906132f3565b60405180910390f35b610421610c0e565b60405161042e9190612ffb565b60405180910390f35b610451600480360381019061044c91906124ee565b610c25565b60405161045e91906132f3565b60405180910390f35b610481600480360381019061047c91906125a2565b610c6e565b005b61048b610ce9565b6040516104989190613016565b60405180910390f35b6104a9610d0d565b005b6104c560048036038101906104c09190612643565b610d87565b6040516104d29190612fe0565b60405180910390f35b6104f560048036038101906104f09190612607565b610db6565b6040516105029190612ffb565b60405180910390f35b610513610e20565b6040516105209190613031565b60405180910390f35b610531610eb2565b60405161053e9190613016565b60405180910390f35b610561600480360381019061055c91906125a2565b610eba565b60405161056e9190612ffb565b60405180910390f35b610591600480360381019061058c91906125a2565b610fa5565b60405161059e9190612ffb565b60405180910390f35b6105c160048036038101906105bc91906125de565b610fc3565b6040516105ce91906132f3565b60405180910390f35b6105df610fe7565b6040516105ec9190613016565b60405180910390f35b61060f600480360381019061060a9190612607565b61100b565b005b61062b60048036038101906106269190612517565b61103f565b60405161063891906132f3565b60405180910390f35b6106496110c6565b6040516106569190613016565b60405180910390f35b60007f5a05180f000000000000000000000000000000000000000000000000000000007bffffffffffffffffffffffffffffffffffffffffffffffffffffffff1916827bffffffffffffffffffffffffffffffffffffffffffffffffffffffff191614806106d257506106d182611128565b5b9050919050565b6060600580546106e89061351c565b80601f01602080910402602001604051908101604052809291908181526020018280546107149061351c565b80156107615780601f1061073657610100808354040283529160200191610761565b820191906000526020600020905b81548152906001019060200180831161074457829003601f168201915b5050505050905090565b600061077f6107786111a2565b84846111aa565b6001905092915050565b6000600454905090565b60006107a0848484611375565b6000600360008673ffffffffffffffffffffffffffffffffffffffff1673ffffffffffffffffffffffffffffffffffffffff16815260200190815260200160002060006107eb6111a2565b73ffffffffffffffffffffffffffffffffffffffff1673ffffffffffffffffffffffffffffffffffffffff1681526020019081526020016000205490508281101561086b576040517f08c379a000000000000000000000000000000000000000000000000000000000815260040161086290613153565b60405180910390fd5b61087f856108776111a2565b8584036111aa565b60019150509392505050565b6000806000838152602001908152602001600020600101549050919050565b6108b482826115f9565b6108d981600160008581526020019081526020016000206110f890919063ffffffff16565b505050565b60006012905090565b6000600854905090565b6108fb8282611622565b61092081600160008581526020019081526020016000206116a590919063ffffffff16565b505050565b60006109c76109326111a2565b8484600360006109406111a2565b73ffffffffffffffffffffffffffffffffffffffff1673ffffffffffffffffffffffffffffffffffffffff16815260200190815260200160002060008873ffffffffffffffffffffffffffffffffffffffff1673ffffffffffffffffffffffffffffffffffffffff168152602001908152602001600020546109c29190613350565b6111aa565b6001905092915050565b610a027f65d7a28e3265b37a6474929f336521b332c1681b933f6cb9f3376673440d862a6109fd6111a2565b610db6565b610a41576040517f08c379a0000000000000000000000000000000000000000000000000000000008152600401610a38906130d3565b60405180910390fd5b610a496116d5565b565b610a7c7f9f2df0fed2c77648de5860a4cc508cd0818c85b8b8a1ab4ceeef8d981c8956a6610a776111a2565b610db6565b610abb576040517f08c379a0000000000000000000000000000000000000000000000000000000008152600401610ab290613173565b60405180910390fd5b610ac36108e7565b81610acc610789565b610ad69190613350565b1115610b17576040517f08c379a0000000000000000000000000000000000000000000000000000000008152600401610b0e90613213565b60405180910390fd5b610b218282611777565b5050565b610b36610b306111a2565b826118d8565b50565b6000610b6c7f65d7a28e3265b37a6474929f336521b332c1681b933f6cb9f3376673440d862a610b676111a2565b610db6565b610bab576040517f08c379a0000000000000000000000000000000000000000000000000000000008152600401610ba2906131b3565b60405180910390fd5b610bc582610bb76108e7565b611ab190919063ffffffff16565b6008819055507f80abc82f9231153a7e1aac6902d6bc5a1c5f5cc02bf2643efada847881696ca3600854604051610bfc91906132f3565b60405180910390a16008549050919050565b6000600760009054906101000a900460ff16905090565b6000600260008373ffffffffffffffffffffffffffffffffffffffff1673ffffffffffffffffffffffffffffffffffffffff168152602001908152602001600020549050919050565b6000610c8183610c7c6111a2565b61103f565b905081811015610cc6576040517f08c379a0000000000000000000000000000000000000000000000000000000008152600401610cbd90613193565b60405180910390fd5b610cda83610cd26111a2565b8484036111aa565b610ce483836118d8565b505050565b7f65d7a28e3265b37a6474929f336521b332c1681b933f6cb9f3376673440d862a81565b610d3e7f65d7a28e3265b37a6474929f336521b332c1681b933f6cb9f3376673440d862a610d396111a2565b610db6565b610d7d576040517f08c379a0000000000000000000000000000000000000000000000000000000008152600401610d7490613253565b60405180910390fd5b610d85611ac7565b565b6000610dae8260016000868152602001908152602001600020611b6a90919063ffffffff16565b905092915050565b600080600084815260200190815260200160002060000160008373ffffffffffffffffffffffffffffffffffffffff1673ffffffffffffffffffffffffffffffffffffffff16815260200190815260200160002060009054906101000a900460ff16905092915050565b606060068054610e2f9061351c565b80601f0160208091040260200160405190810160405280929190818152602001828054610e5b9061351c565b8015610ea85780601f10610e7d57610100808354040283529160200191610ea8565b820191906000526020600020905b815481529060010190602001808311610e8b57829003601f168201915b5050505050905090565b600060010281565b60008060036000610ec96111a2565b73ffffffffffffffffffffffffffffffffffffffff1673ffffffffffffffffffffffffffffffffffffffff16815260200190815260200160002060008573ffffffffffffffffffffffffffffffffffffffff1673ffffffffffffffffffffffffffffffffffffffff16815260200190815260200160002054905082811015610f86576040517f08c379a0000000000000000000000000000000000000000000000000000000008152600401610f7d90613273565b60405180910390fd5b610f9a610f916111a2565b858584036111aa565b600191505092915050565b6000610fb9610fb26111a2565b8484611375565b6001905092915050565b6000610fe060016000848152602001908152602001600020611b85565b9050919050565b7f9f2df0fed2c77648de5860a4cc508cd0818c85b8b8a1ab4ceeef8d981c8956a681565b6110158282611b9a565b61103a81600160008581526020019081526020016000206116a590919063ffffffff16565b505050565b6000600360008473ffffffffffffffffffffffffffffffffffffffff1673ffffffffffffffffffffffffffffffffffffffff16815260200190815260200160002060008373ffffffffffffffffffffffffffffffffffffffff1673ffffffffffffffffffffffffffffffffffffffff16815260200190815260200160002054905092915050565b7f65d7a28e3265b37a6474929f336521b332c1681b933f6cb9f3376673440d862a81565b6110f48282611bc3565b5050565b6000611120836000018373ffffffffffffffffffffffffffffffffffffffff16600102611ca3565b905092915050565b60007f7965db0b000000000000000000000000000000000000000000000000000000007bffffffffffffffffffffffffffffffffffffffffffffffffffffffff1916827bffffffffffffffffffffffffffffffffffffffffffffffffffffffff1916148061119b575061119a82611d13565b5b9050919050565b600033905090565b600073ffffffffffffffffffffffffffffffffffffffff168373ffffffffffffffffffffffffffffffffffffffff16141561121a576040517f08c379a000000000000000000000000000000000000000000000000000000000815260040161121190613233565b60405180910390fd5b600073ffffffffffffffffffffffffffffffffffffffff168273ffffffffffffffffffffffffffffffffffffffff16141561128a576040517f08c379a0000000000000000000000000000000000000000000000000000000008152600401611281906130f3565b60405180910390fd5b80600360008573ffffffffffffffffffffffffffffffffffffffff1673ffffffffffffffffffffffffffffffffffffffff16815260200190815260200160002060008473ffffffffffffffffffffffffffffffffffffffff1673ffffffffffffffffffffffffffffffffffffffff168152602001908152602001600020819055508173ffffffffffffffffffffffffffffffffffffffff168373ffffffffffffffffffffffffffffffffffffffff167f8c5be1e5ebec7d5bd14f71427d1e84f3dd0314c0f7b2291e5b200ac8c7c3b9258360405161136891906132f3565b60405180910390a3505050565b600073ffffffffffffffffffffffffffffffffffffffff168373ffffffffffffffffffffffffffffffffffffffff1614156113e5576040517f08c379a00000000000000000000000000000000000000000000000000000000081526004016113dc906131f3565b60405180910390fd5b600073ffffffffffffffffffffffffffffffffffffffff168273ffffffffffffffffffffffffffffffffffffffff161415611455576040517f08c379a000000000000000000000000000000000000000000000000000000000815260040161144c90613073565b60405180910390fd5b611460838383611d7d565b6000600260008573ffffffffffffffffffffffffffffffffffffffff1673ffffffffffffffffffffffffffffffffffffffff168152602001908152602001600020549050818110156114e7576040517f08c379a00000000000000000000000000000000000000000000000000000000081526004016114de90613113565b60405180910390fd5b818103600260008673ffffffffffffffffffffffffffffffffffffffff1673ffffffffffffffffffffffffffffffffffffffff1681526020019081526020016000208190555081600260008573ffffffffffffffffffffffffffffffffffffffff1673ffffffffffffffffffffffffffffffffffffffff168152602001908152602001600020600082825461157c9190613350565b925050819055508273ffffffffffffffffffffffffffffffffffffffff168473ffffffffffffffffffffffffffffffffffffffff167fddf252ad1be2c89b69c2b068fc378daa952ba7f163c4a11628f55a4df523b3ef846040516115e091906132f3565b60405180910390a36115f3848484611d8d565b50505050565b6116028261088b565b6116138161160e6111a2565b611d92565b61161d8383611bc3565b505050565b61162a6111a2565b73ffffffffffffffffffffffffffffffffffffffff168173ffffffffffffffffffffffffffffffffffffffff1614611697576040517f08c379a000000000000000000000000000000000000000000000000000000000815260040161168e90613293565b60405180910390fd5b6116a18282611e30565b5050565b60006116cd836000018373ffffffffffffffffffffffffffffffffffffffff16600102611f11565b905092915050565b6116dd610c0e565b61171c576040517f08c379a000000000000000000000000000000000000000000000000000000000815260040161171390613093565b60405180910390fd5b6000600760006101000a81548160ff0219169083151502179055507f5db9ee0a495bf2e6ff9c91a7834c1ba4fdd244a5e8aa4e537bd38aeae4b073aa6117606111a2565b60405161176d9190612fe0565b60405180910390a1565b600073ffffffffffffffffffffffffffffffffffffffff168273ffffffffffffffffffffffffffffffffffffffff1614156117e7576040517f08c379a00000000000000000000000000000000000000000000000000000000081526004016117de906132b3565b60405180910390fd5b6117f360008383611d7d565b80600460008282546118059190613350565b9250508190555080600260008473ffffffffffffffffffffffffffffffffffffffff1673ffffffffffffffffffffffffffffffffffffffff168152602001908152602001600020600082825461185b9190613350565b925050819055508173ffffffffffffffffffffffffffffffffffffffff16600073ffffffffffffffffffffffffffffffffffffffff167fddf252ad1be2c89b69c2b068fc378daa952ba7f163c4a11628f55a4df523b3ef836040516118c091906132f3565b60405180910390a36118d460008383611d8d565b5050565b600073ffffffffffffffffffffffffffffffffffffffff168273ffffffffffffffffffffffffffffffffffffffff161415611948576040517f08c379a000000000000000000000000000000000000000000000000000000000815260040161193f906131d3565b60405180910390fd5b61195482600083611d7d565b6000600260008473ffffffffffffffffffffffffffffffffffffffff1673ffffffffffffffffffffffffffffffffffffffff168152602001908152602001600020549050818110156119db576040517f08c379a00000000000000000000000000000000000000000000000000000000081526004016119d2906130b3565b60405180910390fd5b818103600260008573ffffffffffffffffffffffffffffffffffffffff1673ffffffffffffffffffffffffffffffffffffffff168152602001908152602001600020819055508160046000828254611a339190613400565b92505081905550600073ffffffffffffffffffffffffffffffffffffffff168373ffffffffffffffffffffffffffffffffffffffff167fddf252ad1be2c89b69c2b068fc378daa952ba7f163c4a11628f55a4df523b3ef84604051611a9891906132f3565b60405180910390a3611aac83600084611d8d565b505050565b60008183611abf9190613350565b905092915050565b611acf610c0e565b15611b0f576040517f08c379a0000000000000000000000000000000000000000000000000000000008152600401611b0690613133565b60405180910390fd5b6001600760006101000a81548160ff0219169083151502179055507f62e78cea01bee320cd4e420270b5ea74000d11b0c9f74754ebdbfc544b05a258611b536111a2565b604051611b609190612fe0565b60405180910390a1565b6000611b798360000183612097565b60019004905092915050565b6000611b93826000016120e8565b9050919050565b611ba38261088b565b611bb481611baf6111a2565b611d92565b611bbe8383611e30565b505050565b611bcd8282610db6565b611c9f57600160008084815260200190815260200160002060000160008373ffffffffffffffffffffffffffffffffffffffff1673ffffffffffffffffffffffffffffffffffffffff16815260200190815260200160002060006101000a81548160ff021916908315150217905550611c446111a2565b73ffffffffffffffffffffffffffffffffffffffff168173ffffffffffffffffffffffffffffffffffffffff16837f2f8788117e7eff1d82e926ec794901d17c78024a50270940304540a733656f0d60405160405180910390a45b5050565b6000611caf83836120f9565b611d08578260000182908060018154018082558091505060019003906000526020600020016000909190919091505582600001805490508360010160008481526020019081526020016000208190555060019050611d0d565b600090505b92915050565b60007f01ffc9a7000000000000000000000000000000000000000000000000000000007bffffffffffffffffffffffffffffffffffffffffffffffffffffffff1916827bffffffffffffffffffffffffffffffffffffffffffffffffffffffff1916149050919050565b611d8883838361211c565b505050565b505050565b611d9c8282610db6565b611e2c57611dc18173ffffffffffffffffffffffffffffffffffffffff166014612174565b611dd083600190046020612174565b604051602001611de1929190612fa6565b6040516020818303038152906040526040517f08c379a0000000000000000000000000000000000000000000000000000000008152600401611e239190613031565b60405180910390fd5b5050565b611e3a8282610db6565b15611f0d57600080600084815260200190815260200160002060000160008373ffffffffffffffffffffffffffffffffffffffff1673ffffffffffffffffffffffffffffffffffffffff16815260200190815260200160002060006101000a81548160ff021916908315150217905550611eb26111a2565b73ffffffffffffffffffffffffffffffffffffffff168173ffffffffffffffffffffffffffffffffffffffff16837ff6391f5c32d9c69d2a47ea670b442974b53935d1edc7fd64eb21e047a839171b60405160405180910390a45b5050565b6000808360010160008481526020019081526020016000205490506000811461208b576000600182611f439190613400565b9050600060018660000180549050611f5b9190613400565b9050818114612016576000866000018281548110611fa2577f4e487b7100000000000000000000000000000000000000000000000000000000600052603260045260246000fd5b9060005260206000200154905080876000018481548110611fec577f4e487b7100000000000000000000000000000000000000000000000000000000600052603260045260246000fd5b90600052602060002001819055508387600101600083815260200190815260200160002081905550505b85600001805480612050577f4e487b7100000000000000000000000000000000000000000000000000000000600052603160045260246000fd5b600190038181906000526020600020016000905590558560010160008681526020019081526020016000206000905560019350505050612091565b60009150505b92915050565b60008260000182815481106120d5577f4e487b7100000000000000000000000000000000000000000000000000000000600052603260045260246000fd5b9060005260206000200154905092915050565b600081600001805490509050919050565b600080836001016000848152602001908152602001600020541415905092915050565b612127838383612495565b61212f610c0e565b1561216f576040517f08c379a0000000000000000000000000000000000000000000000000000000008152600401612166906132d3565b60405180910390fd5b505050565b60606000600283600261218791906133a6565b6121919190613350565b67ffffffffffffffff8111156121d0577f4e487b7100000000000000000000000000000000000000000000000000000000600052604160045260246000fd5b6040519080825280601f01601f1916602001820160405280156122025781602001600182028036833780820191505090505b5090507f300000000000000000000000000000000000000000000000000000000000000081600081518110612260577f4e487b7100000000000000000000000000000000000000000000000000000000600052603260045260246000fd5b60200101907effffffffffffffffffffffffffffffffffffffffffffffffffffffffffffff1916908160001a9053507f7800000000000000000000000000000000000000000000000000000000000000816001815181106122ea577f4e487b7100000000000000000000000000000000000000000000000000000000600052603260045260246000fd5b60200101907effffffffffffffffffffffffffffffffffffffffffffffffffffffffffffff1916908160001a9053506000600184600261232a91906133a6565b6123349190613350565b90505b6001811115612447577f3031323334353637383961626364656600000000000000000000000000000000600f86166010811061239c577f4e487b7100000000000000000000000000000000000000000000000000000000600052603260045260246000fd5b1a7f0100000000000000000000000000000000000000000000000000000000000000028282815181106123f8577f4e487b7100000000000000000000000000000000000000000000000000000000600052603260045260246000fd5b60200101907effffffffffffffffffffffffffffffffffffffffffffffffffffffffffffff1916908160001a905350600485908060020a8204915050945080612440906134f2565b9050612337565b506000841461248b576040517f08c379a000000000000000000000000000000000000000000000000000000000815260040161248290613053565b60405180910390fd5b8091505092915050565b505050565b6000813590506124a9816135bd565b92915050565b6000813590506124be816135d4565b92915050565b6000813590506124d3816135eb565b92915050565b6000813590506124e881613602565b92915050565b60006020828403121561250057600080fd5b600061250e8482850161249a565b91505092915050565b6000806040838503121561252a57600080fd5b60006125388582860161249a565b92505060206125498582860161249a565b9150509250929050565b60008060006060848603121561256857600080fd5b60006125768682870161249a565b93505060206125878682870161249a565b9250506040612598868287016124d9565b9150509250925092565b600080604083850312156125b557600080fd5b60006125c38582860161249a565b92505060206125d4858286016124d9565b9150509250929050565b6000602082840312156125f057600080fd5b60006125fe848285016124af565b91505092915050565b6000806040838503121561261a57600080fd5b6000612628858286016124af565b92505060206126398582860161249a565b9150509250929050565b6000806040838503121561265657600080fd5b6000612664858286016124af565b9250506020612675858286016124d9565b9150509250929050565b60006020828403121561269157600080fd5b600061269f848285016124c4565b91505092915050565b6000602082840312156126ba57600080fd5b60006126c8848285016124d9565b91505092915050565b6126da81613434565b82525050565b6126e981613446565b82525050565b6126f881613452565b82525050565b600061270982613329565b6127138185613334565b93506127238185602086016134bf565b61272c816135ac565b840191505092915050565b600061274282613329565b61274c8185613345565b935061275c8185602086016134bf565b80840191505092915050565b6000612775602083613334565b91507f537472696e67733a20686578206c656e67746820696e73756666696369656e746000830152602082019050919050565b60006127b5602383613334565b91507f45524332303a207472616e7366657220746f20746865207a65726f206164647260008301527f65737300000000000000000000000000000000000000000000000000000000006020830152604082019050919050565b600061281b601483613334565b91507f5061757361626c653a206e6f74207061757365640000000000000000000000006000830152602082019050919050565b600061285b602283613334565b91507f45524332303a206275726e20616d6f756e7420657863656564732062616c616e60008301527f63650000000000000000000000000000000000000000000000000000000000006020830152604082019050919050565b60006128c1603983613334565b91507f45524332305072657365744d696e7465725061757365723a206d75737420686160008301527f76652070617573657220726f6c6520746f20756e7061757365000000000000006020830152604082019050919050565b6000612927602283613334565b91507f45524332303a20617070726f766520746f20746865207a65726f20616464726560008301527f73730000000000000000000000000000000000000000000000000000000000006020830152604082019050919050565b600061298d602683613334565b91507f45524332303a207472616e7366657220616d6f756e742065786365656473206260008301527f616c616e636500000000000000000000000000000000000000000000000000006020830152604082019050919050565b60006129f3601083613334565b91507f5061757361626c653a20706175736564000000000000000000000000000000006000830152602082019050919050565b6000612a33602883613334565b91507f45524332303a207472616e7366657220616d6f756e742065786365656473206160008301527f6c6c6f77616e63650000000000000000000000000000000000000000000000006020830152604082019050919050565b6000612a99603683613334565b91507f45524332305072657365744d696e7465725061757365723a206d75737420686160008301527f7665206d696e74657220726f6c6520746f206d696e74000000000000000000006020830152604082019050919050565b6000612aff602483613334565b91507f45524332303a206275726e20616d6f756e74206578636565647320616c6c6f7760008301527f616e6365000000000000000000000000000000000000000000000000000000006020830152604082019050919050565b6000612b65602f83613334565b91507f45524332304361707065643a206d75737420686176652063617020726f6c652060008301527f746f20696e6372656173652063617000000000000000000000000000000000006020830152604082019050919050565b6000612bcb602183613334565b91507f45524332303a206275726e2066726f6d20746865207a65726f2061646472657360008301527f73000000000000000000000000000000000000000000000000000000000000006020830152604082019050919050565b6000612c31602583613334565b91507f45524332303a207472616e736665722066726f6d20746865207a65726f20616460008301527f64726573730000000000000000000000000000000000000000000000000000006020830152604082019050919050565b6000612c97601983613334565b91507f45524332304361707065643a20636170206578636565646564000000000000006000830152602082019050919050565b6000612cd7602483613334565b91507f45524332303a20617070726f76652066726f6d20746865207a65726f2061646460008301527f72657373000000000000000000000000000000000000000000000000000000006020830152604082019050919050565b6000612d3d603783613334565b91507f45524332305072657365744d696e7465725061757365723a206d75737420686160008301527f76652070617573657220726f6c6520746f2070617573650000000000000000006020830152604082019050919050565b6000612da3601783613345565b91507f416363657373436f6e74726f6c3a206163636f756e74200000000000000000006000830152601782019050919050565b6000612de3602583613334565b91507f45524332303a2064656372656173656420616c6c6f77616e63652062656c6f7760008301527f207a65726f0000000000000000000000000000000000000000000000000000006020830152604082019050919050565b6000612e49601183613345565b91507f206973206d697373696e6720726f6c65200000000000000000000000000000006000830152601182019050919050565b6000612e89602f83613334565b91507f416363657373436f6e74726f6c3a2063616e206f6e6c792072656e6f756e636560008301527f20726f6c657320666f722073656c6600000000000000000000000000000000006020830152604082019050919050565b6000612eef601f83613334565b91507f45524332303a206d696e7420746f20746865207a65726f2061646472657373006000830152602082019050919050565b6000612f2f602a83613334565b91507f45524332305061757361626c653a20746f6b656e207472616e7366657220776860008301527f696c6520706175736564000000000000000000000000000000000000000000006020830152604082019050919050565b612f91816134a8565b82525050565b612fa0816134b2565b82525050565b6000612fb182612d96565b9150612fbd8285612737565b9150612fc882612e3c565b9150612fd48284612737565b91508190509392505050565b6000602082019050612ff560008301846126d1565b92915050565b600060208201905061301060008301846126e0565b92915050565b600060208201905061302b60008301846126ef565b92915050565b6000602082019050818103600083015261304b81846126fe565b905092915050565b6000602082019050818103600083015261306c81612768565b9050919050565b6000602082019050818103600083015261308c816127a8565b9050919050565b600060208201905081810360008301526130ac8161280e565b9050919050565b600060208201905081810360008301526130cc8161284e565b9050919050565b600060208201905081810360008301526130ec816128b4565b9050919050565b6000602082019050818103600083015261310c8161291a565b9050919050565b6000602082019050818103600083015261312c81612980565b9050919050565b6000602082019050818103600083015261314c816129e6565b9050919050565b6000602082019050818103600083015261316c81612a26565b9050919050565b6000602082019050818103600083015261318c81612a8c565b9050919050565b600060208201905081810360008301526131ac81612af2565b9050919050565b600060208201905081810360008301526131cc81612b58565b9050919050565b600060208201905081810360008301526131ec81612bbe565b9050919050565b6000602082019050818103600083015261320c81612c24565b9050919050565b6000602082019050818103600083015261322c81612c8a565b9050919050565b6000602082019050818103600083015261324c81612cca565b9050919050565b6000602082019050818103600083015261326c81612d30565b9050919050565b6000602082019050818103600083015261328c81612dd6565b9050919050565b600060208201905081810360008301526132ac81612e7c565b9050919050565b600060208201905081810360008301526132cc81612ee2565b9050919050565b600060208201905081810360008301526132ec81612f22565b9050919050565b60006020820190506133086000830184612f88565b92915050565b60006020820190506133236000830184612f97565b92915050565b600081519050919050565b600082825260208201905092915050565b600081905092915050565b600061335b826134a8565b9150613366836134a8565b9250827fffffffffffffffffffffffffffffffffffffffffffffffffffffffffffffffff0382111561339b5761339a61354e565b5b828201905092915050565b60006133b1826134a8565b91506133bc836134a8565b9250817fffffffffffffffffffffffffffffffffffffffffffffffffffffffffffffffff04831182151516156133f5576133f461354e565b5b828202905092915050565b600061340b826134a8565b9150613416836134a8565b9250828210156134295761342861354e565b5b828203905092915050565b600061343f82613488565b9050919050565b60008115159050919050565b6000819050919050565b60007fffffffff0000000000000000000000000000000000000000000000000000000082169050919050565b600073ffffffffffffffffffffffffffffffffffffffff82169050919050565b6000819050919050565b600060ff82169050919050565b60005b838110156134dd5780820151818401526020810190506134c2565b838111156134ec576000848401525b50505050565b60006134fd826134a8565b915060008214156135115761351061354e565b5b600182039050919050565b6000600282049050600182168061353457607f821691505b602082108114156135485761354761357d565b5b50919050565b7f4e487b7100000000000000000000000000000000000000000000000000000000600052601160045260246000fd5b7f4e487b7100000000000000000000000000000000000000000000000000000000600052602260045260246000fd5b6000601f19601f8301169050919050565b6135c681613434565b81146135d157600080fd5b50565b6135dd81613452565b81146135e857600080fd5b50565b6135f48161345c565b81146135ff57600080fd5b50565b61360b816134a8565b811461361657600080fd5b5056fea2646970667358221220ebc4f8eb372c629672f1bdcf73c93605ce87bf3e2705a152087873e77aa7f00564736f6c63430008000033",
  "immutableReferences": {},
  "source": "// SPDX-License-Identifier: MIT\n\npragma solidity ^0.8.0;\n\nimport \"../node_modules/@openzeppelin/contracts/token/ERC20/ERC20.sol\";\nimport \"../node_modules/@openzeppelin/contracts/token/ERC20/extensions/ERC20Burnable.sol\";\nimport \"../node_modules/@openzeppelin/contracts/token/ERC20/extensions/ERC20Pausable.sol\";\nimport \"../node_modules/@openzeppelin/contracts/access/AccessControlEnumerable.sol\";\nimport \"../node_modules/@openzeppelin/contracts/utils/Context.sol\";\nimport \"../node_modules/@openzeppelin/contracts/utils/math/SafeMath.sol\";\n\n/**\n * @dev {ERC20} token, including:\n *\n *  - ability for holders to burn (destroy) their tokens\n *  - a minter role that allows for token minting (creation)\n *  - a pauser role that allows to stop all token transfers\n *\n * This contract uses {AccessControl} to lock permissioned functions using the\n * different roles - head to its documentation for details.\n *\n * The account that deploys the contract will be granted the minter and pauser\n * roles, as well as the default admin role, which will let it grant both minter\n * and pauser roles to other accounts.\n */\ncontract MatiesCoin is Context, AccessControlEnumerable, ERC20Burnable, ERC20Pausable {\n    bytes32 public constant MINTER_ROLE = keccak256(\"MINTER_ROLE\");\n    bytes32 public constant PAUSER_ROLE = keccak256(\"PAUSER_ROLE\");\n    bytes32 public constant CAP_ROLE = keccak256(\"PAUSER_ROLE\");\n    uint256 private _cap;\n\n    using SafeMath for uint256;\n    event CapIncreased(uint256 cap);\n    /**\n     * @dev Grants `DEFAULT_ADMIN_ROLE`, `MINTER_ROLE` and `PAUSER_ROLE` to the\n     * account that deploys the contract.\n     *\n     * See {ERC20-constructor}.\n     */\n    constructor(string memory name, string memory symbol, uint256 cap_) ERC20(name, symbol) {\n         require(cap_ > 0, \"ERC20Capped: cap is 0\");\n        _setupRole(DEFAULT_ADMIN_ROLE, _msgSender());\n\n        _setupRole(MINTER_ROLE, _msgSender());\n        _setupRole(PAUSER_ROLE, _msgSender());\n        _setupRole(CAP_ROLE, _msgSender());\n\n        _cap = cap_;\n    }\n\n\n    /**\n     * @dev Creates `amount` new tokens for `to`.\n     *\n     * See {ERC20-_mint}.\n     *\n     * Requirements:\n     *\n     * - the caller must have the `MINTER_ROLE`.\n     */\n    function mint(address to, uint256 amount) public virtual {\n        require(hasRole(MINTER_ROLE, _msgSender()), \"ERC20PresetMinterPauser: must have minter role to mint\");\n        require(ERC20.totalSupply() + amount <= cap(), \"ERC20Capped: cap exceeded\");\n        _mint(to, amount);\n    }\n\n    /**\n     * @dev Returns the cap on the token's total supply.\n     */\n    function cap() public view virtual returns (uint256) {\n        return _cap;\n    }\n\n    function increaseCap(uint amount) public returns (uint){\n        require(hasRole(CAP_ROLE, _msgSender()), \"ERC20Capped: must have cap role to increase cap\");\n        _cap = cap().add(amount);\n        emit CapIncreased(_cap);\n        return _cap;\n    }\n\n    /**\n     * @dev Pauses all token transfers.\n     *\n     * See {ERC20Pausable} and {Pausable-_pause}.\n     *\n     * Requirements:\n     *\n     * - the caller must have the `PAUSER_ROLE`.\n     */\n    function pause() public virtual {\n        require(hasRole(PAUSER_ROLE, _msgSender()), \"ERC20PresetMinterPauser: must have pauser role to pause\");\n        _pause();\n    }\n\n    /**\n     * @dev Unpauses all token transfers.\n     *\n     * See {ERC20Pausable} and {Pausable-_unpause}.\n     *\n     * Requirements:\n     *\n     * - the caller must have the `PAUSER_ROLE`.\n     */\n    function unpause() public virtual {\n        require(hasRole(PAUSER_ROLE, _msgSender()), \"ERC20PresetMinterPauser: must have pauser role to unpause\");\n        _unpause();\n    }\n\n    function _beforeTokenTransfer(\n        address from,\n        address to,\n        uint256 amount\n    ) internal virtual override(ERC20, ERC20Pausable) {\n        super._beforeTokenTransfer(from, to, amount);\n    }\n}\n",
  "sourcePath": "/home/louwjlab/Documents/gitProjects/moralis.academy/assignments/token/contracts/Token.sol",
  "compiler": {
    "name": "solc",
    "version": "0.8.0+commit.c7dfd78e.Linux.g++"
  },
  "schemaVersion": "3.4.3",
  "updatedAt": "2021-10-21T06:40:06.072Z",
  "networkType": "ethereum",
  "devdoc": {
    "details": "{ERC20} token, including:  - ability for holders to burn (destroy) their tokens  - a minter role that allows for token minting (creation)  - a pauser role that allows to stop all token transfers This contract uses {AccessControl} to lock permissioned functions using the different roles - head to its documentation for details. The account that deploys the contract will be granted the minter and pauser roles, as well as the default admin role, which will let it grant both minter and pauser roles to other accounts.",
    "kind": "dev",
    "methods": {
      "allowance(address,address)": {
        "details": "See {IERC20-allowance}."
      },
      "approve(address,uint256)": {
        "details": "See {IERC20-approve}. Requirements: - `spender` cannot be the zero address."
      },
      "balanceOf(address)": {
        "details": "See {IERC20-balanceOf}."
      },
      "burn(uint256)": {
        "details": "Destroys `amount` tokens from the caller. See {ERC20-_burn}."
      },
      "burnFrom(address,uint256)": {
        "details": "Destroys `amount` tokens from `account`, deducting from the caller's allowance. See {ERC20-_burn} and {ERC20-allowance}. Requirements: - the caller must have allowance for ``accounts``'s tokens of at least `amount`."
      },
      "cap()": {
        "details": "Returns the cap on the token's total supply."
      },
      "constructor": {
        "details": "Grants `DEFAULT_ADMIN_ROLE`, `MINTER_ROLE` and `PAUSER_ROLE` to the account that deploys the contract. See {ERC20-constructor}."
      },
      "decimals()": {
        "details": "Returns the number of decimals used to get its user representation. For example, if `decimals` equals `2`, a balance of `505` tokens should be displayed to a user as `5.05` (`505 / 10 ** 2`). Tokens usually opt for a value of 18, imitating the relationship between Ether and Wei. This is the value {ERC20} uses, unless this function is overridden; NOTE: This information is only used for _display_ purposes: it in no way affects any of the arithmetic of the contract, including {IERC20-balanceOf} and {IERC20-transfer}."
      },
      "decreaseAllowance(address,uint256)": {
        "details": "Atomically decreases the allowance granted to `spender` by the caller. This is an alternative to {approve} that can be used as a mitigation for problems described in {IERC20-approve}. Emits an {Approval} event indicating the updated allowance. Requirements: - `spender` cannot be the zero address. - `spender` must have allowance for the caller of at least `subtractedValue`."
      },
      "getRoleAdmin(bytes32)": {
        "details": "Returns the admin role that controls `role`. See {grantRole} and {revokeRole}. To change a role's admin, use {_setRoleAdmin}."
      },
      "getRoleMember(bytes32,uint256)": {
        "details": "Returns one of the accounts that have `role`. `index` must be a value between 0 and {getRoleMemberCount}, non-inclusive. Role bearers are not sorted in any particular way, and their ordering may change at any point. WARNING: When using {getRoleMember} and {getRoleMemberCount}, make sure you perform all queries on the same block. See the following https://forum.openzeppelin.com/t/iterating-over-elements-on-enumerableset-in-openzeppelin-contracts/2296[forum post] for more information."
      },
      "getRoleMemberCount(bytes32)": {
        "details": "Returns the number of accounts that have `role`. Can be used together with {getRoleMember} to enumerate all bearers of a role."
      },
      "grantRole(bytes32,address)": {
        "details": "Overload {grantRole} to track enumerable memberships"
      },
      "hasRole(bytes32,address)": {
        "details": "Returns `true` if `account` has been granted `role`."
      },
      "increaseAllowance(address,uint256)": {
        "details": "Atomically increases the allowance granted to `spender` by the caller. This is an alternative to {approve} that can be used as a mitigation for problems described in {IERC20-approve}. Emits an {Approval} event indicating the updated allowance. Requirements: - `spender` cannot be the zero address."
      },
      "mint(address,uint256)": {
        "details": "Creates `amount` new tokens for `to`. See {ERC20-_mint}. Requirements: - the caller must have the `MINTER_ROLE`."
      },
      "name()": {
        "details": "Returns the name of the token."
      },
      "pause()": {
        "details": "Pauses all token transfers. See {ERC20Pausable} and {Pausable-_pause}. Requirements: - the caller must have the `PAUSER_ROLE`."
      },
      "paused()": {
        "details": "Returns true if the contract is paused, and false otherwise."
      },
      "renounceRole(bytes32,address)": {
        "details": "Overload {renounceRole} to track enumerable memberships"
      },
      "revokeRole(bytes32,address)": {
        "details": "Overload {revokeRole} to track enumerable memberships"
      },
      "supportsInterface(bytes4)": {
        "details": "See {IERC165-supportsInterface}."
      },
      "symbol()": {
        "details": "Returns the symbol of the token, usually a shorter version of the name."
      },
      "totalSupply()": {
        "details": "See {IERC20-totalSupply}."
      },
      "transfer(address,uint256)": {
        "details": "See {IERC20-transfer}. Requirements: - `recipient` cannot be the zero address. - the caller must have a balance of at least `amount`."
      },
      "transferFrom(address,address,uint256)": {
        "details": "See {IERC20-transferFrom}. Emits an {Approval} event indicating the updated allowance. This is not required by the EIP. See the note at the beginning of {ERC20}. Requirements: - `sender` and `recipient` cannot be the zero address. - `sender` must have a balance of at least `amount`. - the caller must have allowance for ``sender``'s tokens of at least `amount`."
      },
      "unpause()": {
        "details": "Unpauses all token transfers. See {ERC20Pausable} and {Pausable-_unpause}. Requirements: - the caller must have the `PAUSER_ROLE`."
      }
    },
    "version": 1
  },
  "userdoc": {
    "kind": "user",
    "methods": {},
    "version": 1
  }
}