{
  "contractName": "Dex",
  "abi": [
    {
      "anonymous": false,
      "inputs": [
        {
          "indexed": true,
          "internalType": "address",
          "name": "previousOwner",
          "type": "address"
        },
        {
          "indexed": true,
          "internalType": "address",
          "name": "newOwner",
          "type": "address"
        }
      ],
      "name": "OwnershipTransferred",
      "type": "event"
    },
    {
      "inputs": [
        {
          "internalType": "bytes32",
          "name": "_ticker",
          "type": "bytes32"
        },
        {
          "internalType": "address",
          "name": "_tokenAddress",
          "type": "address"
        }
      ],
      "name": "addToken",
      "outputs": [],
      "stateMutability": "nonpayable",
      "type": "function"
    },
    {
      "inputs": [
        {
          "internalType": "address",
          "name": "",
          "type": "address"
        },
        {
          "internalType": "bytes32",
          "name": "",
          "type": "bytes32"
        }
      ],
      "name": "balances",
      "outputs": [
        {
          "internalType": "uint256",
          "name": "",
          "type": "uint256"
        }
      ],
      "stateMutability": "view",
      "type": "function",
      "constant": true
    },
    {
      "inputs": [
        {
          "internalType": "uint256",
          "name": "amount",
          "type": "uint256"
        },
        {
          "internalType": "bytes32",
          "name": "ticker",
          "type": "bytes32"
        }
      ],
      "name": "deposit",
      "outputs": [],
      "stateMutability": "nonpayable",
      "type": "function"
    },
    {
      "inputs": [],
      "name": "depositEth",
      "outputs": [],
      "stateMutability": "payable",
      "type": "function",
      "payable": true
    },
    {
      "inputs": [
        {
          "internalType": "bytes32",
          "name": "",
          "type": "bytes32"
        },
        {
          "internalType": "uint256",
          "name": "",
          "type": "uint256"
        },
        {
          "internalType": "uint256",
          "name": "",
          "type": "uint256"
        }
      ],
      "name": "orderBook",
      "outputs": [
        {
          "internalType": "uint256",
          "name": "id",
          "type": "uint256"
        },
        {
          "internalType": "address",
          "name": "trader",
          "type": "address"
        },
        {
          "internalType": "enum Dex.Side",
          "name": "side",
          "type": "uint8"
        },
        {
          "internalType": "bytes32",
          "name": "ticker",
          "type": "bytes32"
        },
        {
          "internalType": "uint256",
          "name": "amount",
          "type": "uint256"
        },
        {
          "internalType": "uint256",
          "name": "price",
          "type": "uint256"
        }
      ],
      "stateMutability": "view",
      "type": "function",
      "constant": true
    },
    {
      "inputs": [],
      "name": "owner",
      "outputs": [
        {
          "internalType": "address",
          "name": "",
          "type": "address"
        }
      ],
      "stateMutability": "view",
      "type": "function",
      "constant": true
    },
    {
      "inputs": [],
      "name": "renounceOwnership",
      "outputs": [],
      "stateMutability": "nonpayable",
      "type": "function"
    },
    {
      "inputs": [
        {
          "internalType": "uint256",
          "name": "",
          "type": "uint256"
        }
      ],
      "name": "tokenList",
      "outputs": [
        {
          "internalType": "bytes32",
          "name": "",
          "type": "bytes32"
        }
      ],
      "stateMutability": "view",
      "type": "function",
      "constant": true
    },
    {
      "inputs": [
        {
          "internalType": "bytes32",
          "name": "",
          "type": "bytes32"
        }
      ],
      "name": "tokenMapping",
      "outputs": [
        {
          "internalType": "bytes32",
          "name": "ticker",
          "type": "bytes32"
        },
        {
          "internalType": "address",
          "name": "tokenAddress",
          "type": "address"
        }
      ],
      "stateMutability": "view",
      "type": "function",
      "constant": true
    },
    {
      "inputs": [
        {
          "internalType": "address",
          "name": "newOwner",
          "type": "address"
        }
      ],
      "name": "transferOwnership",
      "outputs": [],
      "stateMutability": "nonpayable",
      "type": "function"
    },
    {
      "inputs": [
        {
          "internalType": "uint256",
          "name": "amount",
          "type": "uint256"
        },
        {
          "internalType": "bytes32",
          "name": "ticker",
          "type": "bytes32"
        }
      ],
      "name": "withdraw",
      "outputs": [],
      "stateMutability": "nonpayable",
      "type": "function"
    },
    {
      "inputs": [
        {
          "internalType": "uint256",
          "name": "amount",
          "type": "uint256"
        }
      ],
      "name": "withdrawEth",
      "outputs": [],
      "stateMutability": "nonpayable",
      "type": "function"
    },
    {
      "inputs": [
        {
          "internalType": "bytes32",
          "name": "ticker",
          "type": "bytes32"
        },
        {
          "internalType": "enum Dex.Side",
          "name": "side",
          "type": "uint8"
        }
      ],
      "name": "getOrderBook",
      "outputs": [
        {
          "components": [
            {
              "internalType": "uint256",
              "name": "id",
              "type": "uint256"
            },
            {
              "internalType": "address",
              "name": "trader",
              "type": "address"
            },
            {
              "internalType": "enum Dex.Side",
              "name": "side",
              "type": "uint8"
            },
            {
              "internalType": "bytes32",
              "name": "ticker",
              "type": "bytes32"
            },
            {
              "internalType": "uint256",
              "name": "amount",
              "type": "uint256"
            },
            {
              "internalType": "uint256",
              "name": "price",
              "type": "uint256"
            }
          ],
          "internalType": "struct Dex.Order[]",
          "name": "",
          "type": "tuple[]"
        }
      ],
      "stateMutability": "view",
      "type": "function",
      "constant": true
    },
    {
      "inputs": [
        {
          "internalType": "enum Dex.Side",
          "name": "_side",
          "type": "uint8"
        },
        {
          "internalType": "bytes32",
          "name": "_ticker",
          "type": "bytes32"
        },
        {
          "internalType": "uint256",
          "name": "_amount",
          "type": "uint256"
        },
        {
          "internalType": "uint256",
          "name": "_price",
          "type": "uint256"
        }
      ],
      "name": "createLimitOrder",
      "outputs": [],
      "stateMutability": "nonpayable",
      "type": "function"
    }
  ],
  "bytecode": "0x608060405234801561001057600080fd5b5061003f61002b610044640100000000026401000000009004565b61004c640100000000026401000000009004565b610110565b600033905090565b60008060009054906101000a900473ffffffffffffffffffffffffffffffffffffffff169050816000806101000a81548173ffffffffffffffffffffffffffffffffffffffff021916908373ffffffffffffffffffffffffffffffffffffffff1602179055508173ffffffffffffffffffffffffffffffffffffffff168173ffffffffffffffffffffffffffffffffffffffff167f8be0079c531659141344cd1fd0a4f28419497f9722a3daafe3b4186f6b6457e060405160405180910390a35050565b611fe58061011f6000396000f3fe6080604052600436106100fa576000357c0100000000000000000000000000000000000000000000000000000000900480639776aacf1161009c578063ba58ea6811610076578063ba58ea68146102c0578063c311d049146102fd578063c9630cb014610326578063f2fde38b1461034f576100fa565b80639776aacf146102315780639ead72221461025a578063a8d2021a14610297576100fa565b8063667cb4ba116100d8578063667cb4ba146101885780636f3b62f9146101c6578063715018a6146101ef5780638da5cb5b14610206576100fa565b80630bb431b6146100ff5780631f14df6914610141578063439370b11461017e575b600080fd5b34801561010b57600080fd5b5061012660048036038101906101219190611769565b610378565b60405161013896959493929190611d1a565b60405180910390f35b34801561014d57600080fd5b5061016860048036038101906101639190611663565b61040b565b6040516101759190611cff565b60405180910390f35b610186610430565b005b34801561019457600080fd5b506101af60048036038101906101aa91906116c8565b610529565b6040516101bd929190611c36565b60405180910390f35b3480156101d257600080fd5b506101ed60048036038101906101e891906117b8565b61056d565b005b3480156101fb57600080fd5b50610204610804565b005b34801561021257600080fd5b5061021b61088c565b6040516102289190611b7e565b60405180910390f35b34801561023d57600080fd5b50610258600480360381019061025391906116f1565b6108b5565b005b34801561026657600080fd5b50610281600480360381019061027c919061181b565b610a11565b60405161028e9190611c1b565b60405180910390f35b3480156102a357600080fd5b506102be60048036038101906102b99190611844565b610a35565b005b3480156102cc57600080fd5b506102e760048036038101906102e2919061172d565b610d0b565b6040516102f49190611bf9565b60405180910390f35b34801561030957600080fd5b50610324600480360381019061031f919061181b565b610ecc565b005b34801561033257600080fd5b5061034d60048036038101906103489190611844565b6110e2565b005b34801561035b57600080fd5b506103766004803603810190610371919061163a565b611327565b005b600460205282600052604060002060205281600052604060002081815481106103a057600080fd5b906000526020600020906005020160009250925050508060000154908060010160009054906101000a900473ffffffffffffffffffffffffffffffffffffffff16908060010160149054906101000a900460ff16908060020154908060030154908060040154905086565b6003602052816000526040600020602052806000526040600020600091509150505481565b6104b334600360003373ffffffffffffffffffffffffffffffffffffffff1673ffffffffffffffffffffffffffffffffffffffff16815260200190815260200160002060007f455448000000000000000000000000000000000000000000000000000000000081526020019081526020016000205461141f90919063ffffffff16565b600360003373ffffffffffffffffffffffffffffffffffffffff1673ffffffffffffffffffffffffffffffffffffffff16815260200190815260200160002060007f4554480000000000000000000000000000000000000000000000000000000000815260200190815260200160002081905550565b60016020528060005260406000206000915090508060000154908060010160009054906101000a900473ffffffffffffffffffffffffffffffffffffffff16905082565b610575611517565b6004600085815260200190815260200160002060008660018111156105c3577f4e487b7100000000000000000000000000000000000000000000000000000000600052602160045260246000fd5b81526020019081526020016000208054905081600001818152505033816020019073ffffffffffffffffffffffffffffffffffffffff16908173ffffffffffffffffffffffffffffffffffffffff16815250508481604001906001811115610654577f4e487b7100000000000000000000000000000000000000000000000000000000600052602160045260246000fd5b9081600181111561068e577f4e487b7100000000000000000000000000000000000000000000000000000000600052602160045260246000fd5b815250508381606001818152505082816080018181525050818160a00181815250506004600085815260200190815260200160002060008660018111156106fe577f4e487b7100000000000000000000000000000000000000000000000000000000600052602160045260246000fd5b81526020019081526020016000208190806001815401808255809150506001900390600052602060002090600502016000909190919091506000820151816000015560208201518160010160006101000a81548173ffffffffffffffffffffffffffffffffffffffff021916908373ffffffffffffffffffffffffffffffffffffffff16021790555060408201518160010160146101000a81548160ff021916908360018111156107d8577f4e487b7100000000000000000000000000000000000000000000000000000000600052602160045260246000fd5b0217905550606082015181600201556080820151816003015560a0820151816004015550505050505050565b61080c611435565b73ffffffffffffffffffffffffffffffffffffffff1661082a61088c565b73ffffffffffffffffffffffffffffffffffffffff1614610880576040517f08c379a000000000000000000000000000000000000000000000000000000000815260040161087790611cdf565b60405180910390fd5b61088a600061143d565b565b60008060009054906101000a900473ffffffffffffffffffffffffffffffffffffffff16905090565b6108bd611435565b73ffffffffffffffffffffffffffffffffffffffff166108db61088c565b73ffffffffffffffffffffffffffffffffffffffff1614610931576040517f08c379a000000000000000000000000000000000000000000000000000000000815260040161092890611cdf565b60405180910390fd5b61093961159e565b8281600001818152505081816020019073ffffffffffffffffffffffffffffffffffffffff16908173ffffffffffffffffffffffffffffffffffffffff168152505080600160008581526020019081526020016000206000820151816000015560208201518160010160006101000a81548173ffffffffffffffffffffffffffffffffffffffff021916908373ffffffffffffffffffffffffffffffffffffffff1602179055509050506002839080600181540180825580915050600190039060005260206000200160009091909190915055505050565b60028181548110610a2157600080fd5b906000526020600020016000915090505481565b80600073ffffffffffffffffffffffffffffffffffffffff166001600083815260200190815260200160002060010160009054906101000a900473ffffffffffffffffffffffffffffffffffffffff1673ffffffffffffffffffffffffffffffffffffffff161415610adc576040517f08c379a0000000000000000000000000000000000000000000000000000000008152600401610ad390611cbf565b60405180910390fd5b82600360003373ffffffffffffffffffffffffffffffffffffffff1673ffffffffffffffffffffffffffffffffffffffff1681526020019081526020016000206000848152602001908152602001600020541015610b6f576040517f08c379a0000000000000000000000000000000000000000000000000000000008152600401610b6690611c9f565b60405180910390fd5b610bd283600360003373ffffffffffffffffffffffffffffffffffffffff1673ffffffffffffffffffffffffffffffffffffffff16815260200190815260200160002060008581526020019081526020016000205461150190919063ffffffff16565b600360003373ffffffffffffffffffffffffffffffffffffffff1673ffffffffffffffffffffffffffffffffffffffff1681526020019081526020016000206000848152602001908152602001600020819055506001600083815260200190815260200160002060010160009054906101000a900473ffffffffffffffffffffffffffffffffffffffff1673ffffffffffffffffffffffffffffffffffffffff1663a9059cbb33856040518363ffffffff167c0100000000000000000000000000000000000000000000000000000000028152600401610cb3929190611bd0565b602060405180830381600087803b158015610ccd57600080fd5b505af1158015610ce1573d6000803e3d6000fd5b505050506040513d601f19601f82011682018060405250810190610d05919061169f565b50505050565b6060600460008481526020019081526020016000206000836001811115610d5b577f4e487b7100000000000000000000000000000000000000000000000000000000600052602160045260246000fd5b8152602001908152602001600020805480602002602001604051908101604052809291908181526020016000905b82821015610ec057838290600052602060002090600502016040518060c0016040529081600082015481526020016001820160009054906101000a900473ffffffffffffffffffffffffffffffffffffffff1673ffffffffffffffffffffffffffffffffffffffff1673ffffffffffffffffffffffffffffffffffffffff1681526020016001820160149054906101000a900460ff166001811115610e57577f4e487b7100000000000000000000000000000000000000000000000000000000600052602160045260246000fd5b6001811115610e8f577f4e487b7100000000000000000000000000000000000000000000000000000000600052602160045260246000fd5b8152602001600282015481526020016003820154815260200160048201548152505081526020019060010190610d89565b50505050905092915050565b80600360003373ffffffffffffffffffffffffffffffffffffffff1673ffffffffffffffffffffffffffffffffffffffff16815260200190815260200160002060007f45544800000000000000000000000000000000000000000000000000000000008152602001908152602001600020541015610f7f576040517f08c379a0000000000000000000000000000000000000000000000000000000008152600401610f7690611c7f565b60405180910390fd5b61100281600360003373ffffffffffffffffffffffffffffffffffffffff1673ffffffffffffffffffffffffffffffffffffffff16815260200190815260200160002060007f455448000000000000000000000000000000000000000000000000000000000081526020019081526020016000205461150190919063ffffffff16565b600360003373ffffffffffffffffffffffffffffffffffffffff1673ffffffffffffffffffffffffffffffffffffffff16815260200190815260200160002060007f45544800000000000000000000000000000000000000000000000000000000008152602001908152602001600020819055503373ffffffffffffffffffffffffffffffffffffffff168160405161109a90611b69565b60006040518083038185875af1925050503d80600081146110d7576040519150601f19603f3d011682016040523d82523d6000602084013e6110dc565b606091505b50505050565b80600073ffffffffffffffffffffffffffffffffffffffff166001600083815260200190815260200160002060010160009054906101000a900473ffffffffffffffffffffffffffffffffffffffff1673ffffffffffffffffffffffffffffffffffffffff161415611189576040517f08c379a000000000000000000000000000000000000000000000000000000000815260040161118090611cbf565b60405180910390fd5b6001600083815260200190815260200160002060010160009054906101000a900473ffffffffffffffffffffffffffffffffffffffff1673ffffffffffffffffffffffffffffffffffffffff166323b872dd3330866040518463ffffffff167c010000000000000000000000000000000000000000000000000000000002815260040161121893929190611b99565b602060405180830381600087803b15801561123257600080fd5b505af1158015611246573d6000803e3d6000fd5b505050506040513d601f19601f8201168201806040525081019061126a919061169f565b506112ce83600360003373ffffffffffffffffffffffffffffffffffffffff1673ffffffffffffffffffffffffffffffffffffffff16815260200190815260200160002060008581526020019081526020016000205461141f90919063ffffffff16565b600360003373ffffffffffffffffffffffffffffffffffffffff1673ffffffffffffffffffffffffffffffffffffffff168152602001908152602001600020600084815260200190815260200160002081905550505050565b61132f611435565b73ffffffffffffffffffffffffffffffffffffffff1661134d61088c565b73ffffffffffffffffffffffffffffffffffffffff16146113a3576040517f08c379a000000000000000000000000000000000000000000000000000000000815260040161139a90611cdf565b60405180910390fd5b600073ffffffffffffffffffffffffffffffffffffffff168173ffffffffffffffffffffffffffffffffffffffff161415611413576040517f08c379a000000000000000000000000000000000000000000000000000000000815260040161140a90611c5f565b60405180910390fd5b61141c8161143d565b50565b6000818361142d9190611dd0565b905092915050565b600033905090565b60008060009054906101000a900473ffffffffffffffffffffffffffffffffffffffff169050816000806101000a81548173ffffffffffffffffffffffffffffffffffffffff021916908373ffffffffffffffffffffffffffffffffffffffff1602179055508173ffffffffffffffffffffffffffffffffffffffff168173ffffffffffffffffffffffffffffffffffffffff167f8be0079c531659141344cd1fd0a4f28419497f9722a3daafe3b4186f6b6457e060405160405180910390a35050565b6000818361150f9190611e26565b905092915050565b6040518060c0016040528060008152602001600073ffffffffffffffffffffffffffffffffffffffff16815260200160006001811115611580577f4e487b7100000000000000000000000000000000000000000000000000000000600052602160045260246000fd5b81526020016000801916815260200160008152602001600081525090565b604051806040016040528060008019168152602001600073ffffffffffffffffffffffffffffffffffffffff1681525090565b6000813590506115e081611f43565b92915050565b6000815190506115f581611f5a565b92915050565b60008135905061160a81611f71565b92915050565b60008135905061161f81611f88565b92915050565b60008135905061163481611f98565b92915050565b60006020828403121561164c57600080fd5b600061165a848285016115d1565b91505092915050565b6000806040838503121561167657600080fd5b6000611684858286016115d1565b9250506020611695858286016115fb565b9150509250929050565b6000602082840312156116b157600080fd5b60006116bf848285016115e6565b91505092915050565b6000602082840312156116da57600080fd5b60006116e8848285016115fb565b91505092915050565b6000806040838503121561170457600080fd5b6000611712858286016115fb565b9250506020611723858286016115d1565b9150509250929050565b6000806040838503121561174057600080fd5b600061174e858286016115fb565b925050602061175f85828601611610565b9150509250929050565b60008060006060848603121561177e57600080fd5b600061178c868287016115fb565b935050602061179d86828701611625565b92505060406117ae86828701611625565b9150509250925092565b600080600080608085870312156117ce57600080fd5b60006117dc87828801611610565b94505060206117ed878288016115fb565b93505060406117fe87828801611625565b925050606061180f87828801611625565b91505092959194509250565b60006020828403121561182d57600080fd5b600061183b84828501611625565b91505092915050565b6000806040838503121561185757600080fd5b600061186585828601611625565b9250506020611876858286016115fb565b9150509250929050565b600061188c8383611ad0565b60c08301905092915050565b6118a181611e5a565b82525050565b6118b081611e5a565b82525050565b60006118c182611d8b565b6118cb8185611da3565b93506118d683611d7b565b8060005b838110156119075781516118ee8882611880565b97506118f983611d96565b9250506001810190506118da565b5085935050505092915050565b61191d81611e78565b82525050565b61192c81611e78565b82525050565b61193b81611ebf565b82525050565b61194a81611ebf565b82525050565b600061195d602683611dbf565b91507f4f776e61626c653a206e6577206f776e657220697320746865207a65726f206160008301527f64647265737300000000000000000000000000000000000000000000000000006020830152604082019050919050565b60006119c3601283611dbf565b91507f496e7375666669656e742062616c616e636500000000000000000000000000006000830152602082019050919050565b6000611a03601483611dbf565b91507f496e73756666696369656e742062616c616e63650000000000000000000000006000830152602082019050919050565b6000611a43600f83611dbf565b91507f546f6b656e206e6f7420616464656400000000000000000000000000000000006000830152602082019050919050565b6000611a83602083611dbf565b91507f4f776e61626c653a2063616c6c6572206973206e6f7420746865206f776e65726000830152602082019050919050565b6000611ac3600083611db4565b9150600082019050919050565b60c082016000820151611ae66000850182611b4b565b506020820151611af96020850182611898565b506040820151611b0c6040850182611932565b506060820151611b1f6060850182611914565b506080820151611b326080850182611b4b565b5060a0820151611b4560a0850182611b4b565b50505050565b611b5481611eb5565b82525050565b611b6381611eb5565b82525050565b6000611b7482611ab6565b9150819050919050565b6000602082019050611b9360008301846118a7565b92915050565b6000606082019050611bae60008301866118a7565b611bbb60208301856118a7565b611bc86040830184611b5a565b949350505050565b6000604082019050611be560008301856118a7565b611bf26020830184611b5a565b9392505050565b60006020820190508181036000830152611c1381846118b6565b905092915050565b6000602082019050611c306000830184611923565b92915050565b6000604082019050611c4b6000830185611923565b611c5860208301846118a7565b9392505050565b60006020820190508181036000830152611c7881611950565b9050919050565b60006020820190508181036000830152611c98816119b6565b9050919050565b60006020820190508181036000830152611cb8816119f6565b9050919050565b60006020820190508181036000830152611cd881611a36565b9050919050565b60006020820190508181036000830152611cf881611a76565b9050919050565b6000602082019050611d146000830184611b5a565b92915050565b600060c082019050611d2f6000830189611b5a565b611d3c60208301886118a7565b611d496040830187611941565b611d566060830186611923565b611d636080830185611b5a565b611d7060a0830184611b5a565b979650505050505050565b6000819050602082019050919050565b600081519050919050565b6000602082019050919050565b600082825260208201905092915050565b600081905092915050565b600082825260208201905092915050565b6000611ddb82611eb5565b9150611de683611eb5565b9250827fffffffffffffffffffffffffffffffffffffffffffffffffffffffffffffffff03821115611e1b57611e1a611ed1565b5b828201905092915050565b6000611e3182611eb5565b9150611e3c83611eb5565b925082821015611e4f57611e4e611ed1565b5b828203905092915050565b6000611e6582611e95565b9050919050565b60008115159050919050565b6000819050919050565b6000819050611e9082611f2f565b919050565b600073ffffffffffffffffffffffffffffffffffffffff82169050919050565b6000819050919050565b6000611eca82611e82565b9050919050565b7f4e487b7100000000000000000000000000000000000000000000000000000000600052601160045260246000fd5b7f4e487b7100000000000000000000000000000000000000000000000000000000600052602160045260246000fd5b60028110611f4057611f3f611f00565b5b50565b611f4c81611e5a565b8114611f5757600080fd5b50565b611f6381611e6c565b8114611f6e57600080fd5b50565b611f7a81611e78565b8114611f8557600080fd5b50565b60028110611f9557600080fd5b50565b611fa181611eb5565b8114611fac57600080fd5b5056fea26469706673582212206956b919660f0072b5a9ce0cc28c1b33a347130acd03f9b2a83bf80f7c8533d264736f6c63430008000033",
  "immutableReferences": {},
  "source": "pragma solidity ^0.8.0;\npragma abicoder v2;\n\nimport \"./wallet.sol\";\n\ncontract Dex is Wallet {\n    using SafeMath for uint256;\n\n    enum Side {\n        BUY,\n        SELL\n    }\n\n    struct Order {\n        uint256 id;\n        address trader;\n        Side side;\n        bytes32 ticker;\n        uint256 amount; //in ETH\n        uint256 price;\n    }\n\n    mapping(bytes32 => mapping(uint256 => Order[])) public orderBook;\n\n    function getOrderBook(bytes32 ticker, Side side)\n        public\n        view\n        returns (Order[] memory)\n    {\n        return orderBook[ticker][uint256(side)];\n    }\n\n    function createLimitOrder(\n        Side _side,\n        bytes32 _ticker,\n        uint256 _amount,\n        uint256 _price\n    ) public {\n        Order memory order;\n        order.id = orderBook[_ticker][uint256(_side)].length;\n        order.trader = msg.sender;\n        order.side = _side;\n        order.ticker = _ticker;\n        order.amount = _amount;\n        order.price = _price;\n        orderBook[_ticker][uint(_side)].push(order);\n    }\n}\n",
  "sourcePath": "/home/louwjlab/Documents/gitProjects/moralis.academy/assignments/dex/contracts/dex.sol",
  "compiler": {
    "name": "solc",
    "version": "0.8.0+commit.c7dfd78e.Linux.g++"
  },
  "schemaVersion": "3.4.3",
  "updatedAt": "2021-10-26T11:48:08.705Z",
  "networkType": "ethereum",
  "devdoc": {
    "kind": "dev",
    "methods": {
      "owner()": {
        "details": "Returns the address of the current owner."
      },
      "renounceOwnership()": {
        "details": "Leaves the contract without owner. It will not be possible to call `onlyOwner` functions anymore. Can only be called by the current owner. NOTE: Renouncing ownership will leave the contract without an owner, thereby removing any functionality that is only available to the owner."
      },
      "transferOwnership(address)": {
        "details": "Transfers ownership of the contract to a new account (`newOwner`). Can only be called by the current owner."
      }
    },
    "version": 1
  },
  "userdoc": {
    "kind": "user",
    "methods": {},
    "version": 1
  }
}