{
  "contractName": "Wallet",
  "abi": [
    {
      "anonymous": false,
      "inputs": [
        {
          "indexed": true,
          "internalType": "address",
          "name": "previousOwner",
          "type": "address"
        },
        {
          "indexed": true,
          "internalType": "address",
          "name": "newOwner",
          "type": "address"
        }
      ],
      "name": "OwnershipTransferred",
      "type": "event"
    },
    {
      "inputs": [
        {
          "internalType": "address",
          "name": "",
          "type": "address"
        },
        {
          "internalType": "bytes32",
          "name": "",
          "type": "bytes32"
        }
      ],
      "name": "balances",
      "outputs": [
        {
          "internalType": "uint256",
          "name": "",
          "type": "uint256"
        }
      ],
      "stateMutability": "view",
      "type": "function"
    },
    {
      "inputs": [],
      "name": "owner",
      "outputs": [
        {
          "internalType": "address",
          "name": "",
          "type": "address"
        }
      ],
      "stateMutability": "view",
      "type": "function"
    },
    {
      "inputs": [],
      "name": "renounceOwnership",
      "outputs": [],
      "stateMutability": "nonpayable",
      "type": "function"
    },
    {
      "inputs": [
        {
          "internalType": "uint256",
          "name": "",
          "type": "uint256"
        }
      ],
      "name": "tokenList",
      "outputs": [
        {
          "internalType": "bytes32",
          "name": "",
          "type": "bytes32"
        }
      ],
      "stateMutability": "view",
      "type": "function"
    },
    {
      "inputs": [
        {
          "internalType": "bytes32",
          "name": "",
          "type": "bytes32"
        }
      ],
      "name": "tokenMapping",
      "outputs": [
        {
          "internalType": "bytes32",
          "name": "ticker",
          "type": "bytes32"
        },
        {
          "internalType": "address",
          "name": "tokenAddress",
          "type": "address"
        }
      ],
      "stateMutability": "view",
      "type": "function"
    },
    {
      "inputs": [
        {
          "internalType": "address",
          "name": "newOwner",
          "type": "address"
        }
      ],
      "name": "transferOwnership",
      "outputs": [],
      "stateMutability": "nonpayable",
      "type": "function"
    },
    {
      "inputs": [
        {
          "internalType": "bytes32",
          "name": "_ticker",
          "type": "bytes32"
        },
        {
          "internalType": "address",
          "name": "_tokenAddress",
          "type": "address"
        }
      ],
      "name": "addToken",
      "outputs": [],
      "stateMutability": "nonpayable",
      "type": "function"
    },
    {
      "inputs": [
        {
          "internalType": "uint256",
          "name": "amount",
          "type": "uint256"
        },
        {
          "internalType": "bytes32",
          "name": "ticker",
          "type": "bytes32"
        }
      ],
      "name": "deposit",
      "outputs": [],
      "stateMutability": "nonpayable",
      "type": "function"
    },
    {
      "inputs": [
        {
          "internalType": "uint256",
          "name": "amount",
          "type": "uint256"
        },
        {
          "internalType": "bytes32",
          "name": "ticker",
          "type": "bytes32"
        }
      ],
      "name": "withdraw",
      "outputs": [],
      "stateMutability": "nonpayable",
      "type": "function"
    },
    {
      "inputs": [],
      "name": "depositEth",
      "outputs": [],
      "stateMutability": "payable",
      "type": "function"
    },
    {
      "inputs": [
        {
          "internalType": "uint256",
          "name": "amount",
          "type": "uint256"
        }
      ],
      "name": "withdrawEth",
      "outputs": [],
      "stateMutability": "nonpayable",
      "type": "function"
    }
  ],
  "bytecode": "0x608060405234801561001057600080fd5b5061003f61002b610044640100000000026401000000009004565b61004c640100000000026401000000009004565b610110565b600033905090565b60008060009054906101000a900473ffffffffffffffffffffffffffffffffffffffff169050816000806101000a81548173ffffffffffffffffffffffffffffffffffffffff021916908373ffffffffffffffffffffffffffffffffffffffff1602179055508173ffffffffffffffffffffffffffffffffffffffff168173ffffffffffffffffffffffffffffffffffffffff167f8be0079c531659141344cd1fd0a4f28419497f9722a3daafe3b4186f6b6457e060405160405180910390a35050565b6116178061011f6000396000f3fe6080604052600436106100b9576000357c0100000000000000000000000000000000000000000000000000000000900480639776aacf116100815780639776aacf146101855780639ead7222146101ae578063a8d2021a146101eb578063c311d04914610214578063c9630cb01461023d578063f2fde38b14610266576100b9565b80631f14df69146100be578063439370b1146100fb578063667cb4ba14610105578063715018a6146101435780638da5cb5b1461015a575b600080fd5b3480156100ca57600080fd5b506100e560048036038101906100e09190610ff3565b61028f565b6040516100f29190611443565b60405180910390f35b6101036102b4565b005b34801561011157600080fd5b5061012c60048036038101906101279190611058565b6103ad565b60405161013a92919061137a565b60405180910390f35b34801561014f57600080fd5b506101586103f1565b005b34801561016657600080fd5b5061016f610479565b60405161017c91906112e4565b60405180910390f35b34801561019157600080fd5b506101ac60048036038101906101a79190611081565b6104a2565b005b3480156101ba57600080fd5b506101d560048036038101906101d091906110bd565b6105fe565b6040516101e2919061135f565b60405180910390f35b3480156101f757600080fd5b50610212600480360381019061020d91906110e6565b610622565b005b34801561022057600080fd5b5061023b600480360381019061023691906110bd565b6108f8565b005b34801561024957600080fd5b50610264600480360381019061025f91906110e6565b610b0e565b005b34801561027257600080fd5b5061028d60048036038101906102889190610fca565b610d53565b005b6003602052816000526040600020602052806000526040600020600091509150505481565b61033734600360003373ffffffffffffffffffffffffffffffffffffffff1673ffffffffffffffffffffffffffffffffffffffff16815260200190815260200160002060007f4554480000000000000000000000000000000000000000000000000000000000815260200190815260200160002054610e4b90919063ffffffff16565b600360003373ffffffffffffffffffffffffffffffffffffffff1673ffffffffffffffffffffffffffffffffffffffff16815260200190815260200160002060007f4554480000000000000000000000000000000000000000000000000000000000815260200190815260200160002081905550565b60016020528060005260406000206000915090508060000154908060010160009054906101000a900473ffffffffffffffffffffffffffffffffffffffff16905082565b6103f9610e61565b73ffffffffffffffffffffffffffffffffffffffff16610417610479565b73ffffffffffffffffffffffffffffffffffffffff161461046d576040517f08c379a000000000000000000000000000000000000000000000000000000000815260040161046490611423565b60405180910390fd5b6104776000610e69565b565b60008060009054906101000a900473ffffffffffffffffffffffffffffffffffffffff16905090565b6104aa610e61565b73ffffffffffffffffffffffffffffffffffffffff166104c8610479565b73ffffffffffffffffffffffffffffffffffffffff161461051e576040517f08c379a000000000000000000000000000000000000000000000000000000000815260040161051590611423565b60405180910390fd5b610526610f43565b8281600001818152505081816020019073ffffffffffffffffffffffffffffffffffffffff16908173ffffffffffffffffffffffffffffffffffffffff168152505080600160008581526020019081526020016000206000820151816000015560208201518160010160006101000a81548173ffffffffffffffffffffffffffffffffffffffff021916908373ffffffffffffffffffffffffffffffffffffffff1602179055509050506002839080600181540180825580915050600190039060005260206000200160009091909190915055505050565b6002818154811061060e57600080fd5b906000526020600020016000915090505481565b80600073ffffffffffffffffffffffffffffffffffffffff166001600083815260200190815260200160002060010160009054906101000a900473ffffffffffffffffffffffffffffffffffffffff1673ffffffffffffffffffffffffffffffffffffffff1614156106c9576040517f08c379a00000000000000000000000000000000000000000000000000000000081526004016106c090611403565b60405180910390fd5b82600360003373ffffffffffffffffffffffffffffffffffffffff1673ffffffffffffffffffffffffffffffffffffffff168152602001908152602001600020600084815260200190815260200160002054101561075c576040517f08c379a0000000000000000000000000000000000000000000000000000000008152600401610753906113e3565b60405180910390fd5b6107bf83600360003373ffffffffffffffffffffffffffffffffffffffff1673ffffffffffffffffffffffffffffffffffffffff168152602001908152602001600020600085815260200190815260200160002054610f2d90919063ffffffff16565b600360003373ffffffffffffffffffffffffffffffffffffffff1673ffffffffffffffffffffffffffffffffffffffff1681526020019081526020016000206000848152602001908152602001600020819055506001600083815260200190815260200160002060010160009054906101000a900473ffffffffffffffffffffffffffffffffffffffff1673ffffffffffffffffffffffffffffffffffffffff1663a9059cbb33856040518363ffffffff167c01000000000000000000000000000000000000000000000000000000000281526004016108a0929190611336565b602060405180830381600087803b1580156108ba57600080fd5b505af11580156108ce573d6000803e3d6000fd5b505050506040513d601f19601f820116820180604052508101906108f2919061102f565b50505050565b80600360003373ffffffffffffffffffffffffffffffffffffffff1673ffffffffffffffffffffffffffffffffffffffff16815260200190815260200160002060007f455448000000000000000000000000000000000000000000000000000000000081526020019081526020016000205410156109ab576040517f08c379a00000000000000000000000000000000000000000000000000000000081526004016109a2906113c3565b60405180910390fd5b610a2e81600360003373ffffffffffffffffffffffffffffffffffffffff1673ffffffffffffffffffffffffffffffffffffffff16815260200190815260200160002060007f4554480000000000000000000000000000000000000000000000000000000000815260200190815260200160002054610f2d90919063ffffffff16565b600360003373ffffffffffffffffffffffffffffffffffffffff1673ffffffffffffffffffffffffffffffffffffffff16815260200190815260200160002060007f45544800000000000000000000000000000000000000000000000000000000008152602001908152602001600020819055503373ffffffffffffffffffffffffffffffffffffffff1681604051610ac6906112cf565b60006040518083038185875af1925050503d8060008114610b03576040519150601f19603f3d011682016040523d82523d6000602084013e610b08565b606091505b50505050565b80600073ffffffffffffffffffffffffffffffffffffffff166001600083815260200190815260200160002060010160009054906101000a900473ffffffffffffffffffffffffffffffffffffffff1673ffffffffffffffffffffffffffffffffffffffff161415610bb5576040517f08c379a0000000000000000000000000000000000000000000000000000000008152600401610bac90611403565b60405180910390fd5b6001600083815260200190815260200160002060010160009054906101000a900473ffffffffffffffffffffffffffffffffffffffff1673ffffffffffffffffffffffffffffffffffffffff166323b872dd3330866040518463ffffffff167c0100000000000000000000000000000000000000000000000000000000028152600401610c44939291906112ff565b602060405180830381600087803b158015610c5e57600080fd5b505af1158015610c72573d6000803e3d6000fd5b505050506040513d601f19601f82011682018060405250810190610c96919061102f565b50610cfa83600360003373ffffffffffffffffffffffffffffffffffffffff1673ffffffffffffffffffffffffffffffffffffffff168152602001908152602001600020600085815260200190815260200160002054610e4b90919063ffffffff16565b600360003373ffffffffffffffffffffffffffffffffffffffff1673ffffffffffffffffffffffffffffffffffffffff168152602001908152602001600020600084815260200190815260200160002081905550505050565b610d5b610e61565b73ffffffffffffffffffffffffffffffffffffffff16610d79610479565b73ffffffffffffffffffffffffffffffffffffffff1614610dcf576040517f08c379a0000000000000000000000000000000000000000000000000000000008152600401610dc690611423565b60405180910390fd5b600073ffffffffffffffffffffffffffffffffffffffff168173ffffffffffffffffffffffffffffffffffffffff161415610e3f576040517f08c379a0000000000000000000000000000000000000000000000000000000008152600401610e36906113a3565b60405180910390fd5b610e4881610e69565b50565b60008183610e59919061147a565b905092915050565b600033905090565b60008060009054906101000a900473ffffffffffffffffffffffffffffffffffffffff169050816000806101000a81548173ffffffffffffffffffffffffffffffffffffffff021916908373ffffffffffffffffffffffffffffffffffffffff1602179055508173ffffffffffffffffffffffffffffffffffffffff168173ffffffffffffffffffffffffffffffffffffffff167f8be0079c531659141344cd1fd0a4f28419497f9722a3daafe3b4186f6b6457e060405160405180910390a35050565b60008183610f3b91906114d0565b905092915050565b604051806040016040528060008019168152602001600073ffffffffffffffffffffffffffffffffffffffff1681525090565b600081359050610f8581611585565b92915050565b600081519050610f9a8161159c565b92915050565b600081359050610faf816115b3565b92915050565b600081359050610fc4816115ca565b92915050565b600060208284031215610fdc57600080fd5b6000610fea84828501610f76565b91505092915050565b6000806040838503121561100657600080fd5b600061101485828601610f76565b925050602061102585828601610fa0565b9150509250929050565b60006020828403121561104157600080fd5b600061104f84828501610f8b565b91505092915050565b60006020828403121561106a57600080fd5b600061107884828501610fa0565b91505092915050565b6000806040838503121561109457600080fd5b60006110a285828601610fa0565b92505060206110b385828601610f76565b9150509250929050565b6000602082840312156110cf57600080fd5b60006110dd84828501610fb5565b91505092915050565b600080604083850312156110f957600080fd5b600061110785828601610fb5565b925050602061111885828601610fa0565b9150509250929050565b61112b81611504565b82525050565b61113a81611522565b82525050565b600061114d602683611469565b91507f4f776e61626c653a206e6577206f776e657220697320746865207a65726f206160008301527f64647265737300000000000000000000000000000000000000000000000000006020830152604082019050919050565b60006111b3601283611469565b91507f496e7375666669656e742062616c616e636500000000000000000000000000006000830152602082019050919050565b60006111f3601483611469565b91507f496e73756666696369656e742062616c616e63650000000000000000000000006000830152602082019050919050565b6000611233600f83611469565b91507f546f6b656e206e6f7420616464656400000000000000000000000000000000006000830152602082019050919050565b6000611273602083611469565b91507f4f776e61626c653a2063616c6c6572206973206e6f7420746865206f776e65726000830152602082019050919050565b60006112b360008361145e565b9150600082019050919050565b6112c98161154c565b82525050565b60006112da826112a6565b9150819050919050565b60006020820190506112f96000830184611122565b92915050565b60006060820190506113146000830186611122565b6113216020830185611122565b61132e60408301846112c0565b949350505050565b600060408201905061134b6000830185611122565b61135860208301846112c0565b9392505050565b60006020820190506113746000830184611131565b92915050565b600060408201905061138f6000830185611131565b61139c6020830184611122565b9392505050565b600060208201905081810360008301526113bc81611140565b9050919050565b600060208201905081810360008301526113dc816111a6565b9050919050565b600060208201905081810360008301526113fc816111e6565b9050919050565b6000602082019050818103600083015261141c81611226565b9050919050565b6000602082019050818103600083015261143c81611266565b9050919050565b600060208201905061145860008301846112c0565b92915050565b600081905092915050565b600082825260208201905092915050565b60006114858261154c565b91506114908361154c565b9250827fffffffffffffffffffffffffffffffffffffffffffffffffffffffffffffffff038211156114c5576114c4611556565b5b828201905092915050565b60006114db8261154c565b91506114e68361154c565b9250828210156114f9576114f8611556565b5b828203905092915050565b600061150f8261152c565b9050919050565b60008115159050919050565b6000819050919050565b600073ffffffffffffffffffffffffffffffffffffffff82169050919050565b6000819050919050565b7f4e487b7100000000000000000000000000000000000000000000000000000000600052601160045260246000fd5b61158e81611504565b811461159957600080fd5b50565b6115a581611516565b81146115b057600080fd5b50565b6115bc81611522565b81146115c757600080fd5b50565b6115d38161154c565b81146115de57600080fd5b5056fea2646970667358221220e1e5fff1b2bcbb2774c34409c50d8cd031cdee9e03f33dd8136f898595bc0aa964736f6c63430008000033",
  "immutableReferences": {},
  "source": "pragma solidity ^0.8.0;\n\nimport \"../node_modules/@openzeppelin/contracts/token/ERC20/IERC20.sol\";\nimport \"../node_modules/@openzeppelin/contracts/utils/math/SafeMath.sol\";\nimport \"../node_modules/@openzeppelin/contracts/access/Ownable.sol\";\n\ncontract Wallet is Ownable {\n\n    using SafeMath for uint256;\n\n    struct Token {\n        bytes32 ticker;\n        address tokenAddress;\n    }\n    mapping(bytes32 => Token) public tokenMapping;\n    bytes32[] public tokenList;\n\n    // Can't compare string, so using bytes32 for tickers \n    mapping (address => mapping (bytes32 => uint256)) public balances;\n\n    modifier tokenExist(bytes32 ticker) {\n      require(tokenMapping[ticker].tokenAddress != address(0), \"Token not added\");\n      _;\n    }\n\n\n    function addToken(bytes32 _ticker, address _tokenAddress) onlyOwner external {\n        Token memory token;\n        token.ticker = _ticker;\n        token.tokenAddress = _tokenAddress;\n        tokenMapping[_ticker] = token;\n        tokenList.push(_ticker);\n    }\n\n    function deposit(uint amount, bytes32 ticker) tokenExist(ticker) external {\n\n        // IERC20(tokenMapping[ticker].tokenAddress).approve(address(this), amount);//Apparently this does not need to be here\n        IERC20(tokenMapping[ticker].tokenAddress).transferFrom(msg.sender, address(this), amount);\n        balances[msg.sender][ticker] = balances[msg.sender][ticker].add(amount);\n    }\n\n    function withdraw(uint amount, bytes32 ticker)  tokenExist(ticker) external{\n        require(balances[msg.sender][ticker] >= amount, \"Insufficient balance\");\n\n        balances[msg.sender][ticker] = balances[msg.sender][ticker].sub(amount);\n        IERC20(tokenMapping[ticker].tokenAddress).transfer(msg.sender, amount);\n        \n    }\n\n    function depositEth() payable external {\n        balances[msg.sender][bytes32(\"ETH\")] = balances[msg.sender][bytes32(\"ETH\")].add(msg.value);\n    }\n    \n    function withdrawEth(uint amount) external {\n        require(balances[msg.sender][bytes32(\"ETH\")] >= amount,'Insuffient balance'); \n        balances[msg.sender][bytes32(\"ETH\")] = balances[msg.sender][bytes32(\"ETH\")].sub(amount);\n        msg.sender.call{value:amount}(\"\");\n    }\n\n}",
  "sourcePath": "/home/louwjlab/Documents/gitProjects/moralis.academy/assignments/dex/contracts/wallet.sol",
  "compiler": {
    "name": "solc",
    "version": "0.8.0+commit.c7dfd78e.Linux.g++"
  },
  "schemaVersion": "3.4.3",
  "updatedAt": "2021-10-26T11:47:47.227Z",
  "devdoc": {
    "kind": "dev",
    "methods": {
      "owner()": {
        "details": "Returns the address of the current owner."
      },
      "renounceOwnership()": {
        "details": "Leaves the contract without owner. It will not be possible to call `onlyOwner` functions anymore. Can only be called by the current owner. NOTE: Renouncing ownership will leave the contract without an owner, thereby removing any functionality that is only available to the owner."
      },
      "transferOwnership(address)": {
        "details": "Transfers ownership of the contract to a new account (`newOwner`). Can only be called by the current owner."
      }
    },
    "version": 1
  },
  "userdoc": {
    "kind": "user",
    "methods": {},
    "version": 1
  }
}